:020000040800F2
:10000000F0190020C1020008E11E0008291E0008A6
:10001000DD1E0008751C00083B2D000800000000D4
:100020000000000000000000000000003D24000867
:10003000791C000800000000252300081526000890
:10004000DB020008DB020008DB020008DB0200081C
:10005000DB020008DB020008DB020008DB0200080C
:10006000DB020008DB020008DB020008DB020008FC
:10007000DB020008DB020008DB020008DB020008EC
:10008000DB020008DB020008DB020008DB020008DC
:10009000DB020008DB020008DB020008DB020008CC
:1000A000DB020008DB020008DB020008DB020008BC
:1000B000DB020008DB02000879260008DB020008EA
:1000C000DB020008DB020008DB020008DB0200089C
:1000D000DB020008DB020008DB020008A52A00089A
:1000E000DB020008DB020008DB020008DB0200087C
:1000F000DB020008DB020008DB020008DB0200086C
:10010000DB020008DB020008DB020008DB0200085B
:10011000D9290008DB020008DB020008DB02000826
:10012000DB020008DB020008DB020008DB0200083B
:1001300000F002F800F0B4F80AA090E8000C824445
:100140008344AAF10107DA4501D100F0A9F8AFF222
:10015000090EBAE80F0013F0010F18BFFB1A43F0A5
:1001600001031847A4400000C440000010F8013B00
:100170000A4413F0030408BF10F8014B1D1108BF17
:1001800010F8015B641E05D010F8016B641E01F8C5
:10019000016BF9D1002D15D010F8014B03F00C03C1
:1001A0000C2BA1EB04040ABF10F8013BA4EB831451
:1001B000A4EB032405F1010314F8016B5B1E01F8A5
:1001C000016BF9D5914238BF10F8013BD1D370478C
:1001D0000023002400250026103A28BF78C1FBD850
:1001E000520728BF30C148BF0B6070476E2900F02E
:1001F0006181702900F0A382662903F08A84652951
:1002000003F08784672903F08484612903F08384E1
:1002100003681B0A28BF41F08001692900F00E81A4
:10022000642900F00B81752900F008816F2900F026
:100230003082782900F06F82E92900F0CB81E4292F
:1002400000F0C881F52900F0C581EF2900F02D826A
:10025000F82900F06E820368DB0928BF41F08001B5
:10026000632900F07187732900F07687E32900F095
:100270008187F32900F08687002070471FB500F0C2
:10028000D3FF04000020002103F0F0F9401C60605F
:100290000020002103F0D4F9E0601FBD10B510BDAF
:1002A00000F094FF1146FFF7E9FF02F017FE01F09E
:1002B00071F803B4FFF7F2FF03BC01F0B9F80000D6
:1002C0000948804709480047FEE7FEE7FEE7FEE7EA
:1002D000FEE7FEE7FEE7FEE7FEE7FEE70448054926
:1002E000054A064B70470000192600083101000836
:1002F000F0130020F0190020F0150020F015002068
:100300001CB50C46064B7B4469460090204600F025
:10031000EAF804460020694600F0F8F820461CBDC3
:10032000030200004FF0000200B5134694469646C3
:10033000203922BFA0E80C50A0E80C50B1F12001F8
:10034000BFF4F7AF090728BFA0E80C5048BF0CC0A6
:100350005DF804EB890028BF40F8042B08BF704704
:1003600048BF20F8022B11F0804F18BF00F8012B76
:10037000704770477047704770B5044685690068DC
:10038000C10601D5302600E02026C00707D070BD89
:10039000D4E9012130469047206A401C20626D1E3E
:1003A000F6D570BD70B5044685690078C00707D1E1
:1003B00070BDD4E9012120209047206A401C2062B2
:1003C0006D1EF6D570BD09684A0501D540B270476B
:1003D000C905FCD500B2704709684A0501D5C0B20D
:1003E0007047C905FCD580B2704770B50C4605460C
:1003F000012A05D02878800600D5EA69002302E0AA
:10040000012305E05B1C934202D2E05C0028F9D195
:10041000A869E618C01AA861286A18442862284604
:10042000FFF7AAFF04E0D5E9012114F8010B90477A
:10043000B442F8D32846FFF7B5FF70BD2DE9F0416F
:100440000646002410687529314616A510D0FFF71E
:10045000BAFF002802DA404213A507E031688A0794
:1004600001D512A502E0490704D511A5012401E038
:10047000FFF7B2FF00210A2206F1240709E0B0FBD2
:10048000F2FCB0FBF2F302FB1C003030785418464B
:10049000491C0028F3D123462A463046BDE8F041E6
:1004A00000F061BA000000002D0000002B000000E9
:1004B0002000000011680268006A530501D5087029
:1004C0000AE0D30501D5088006E0130603D5C2175C
:1004D000C1E9000200E008600120704701694A1C80
:1004E00002610878704700B58FB0CDE90131002175
:1004F000059105497944CDE903101146684600F09D
:1005000029F90FB000BD0000E5FFFFFF0A6802F8FF
:10051000010B0A60704700002DE9FF5F15468A460F
:100520000446DFF8AC80F8440027D8E900103E46C6
:10053000CDE9001010E03AF816106A4602A800F063
:1005400025FE411C07D02178890603D5E2693918B8
:1005500091420DD80744761C2078800602D5E069C8
:10056000B84205DDAE42E6DB3AF816000028E2D1DB
:10057000A069C01BA0612046FFF7FEFED8E900106D
:10058000CDE90010002017E03AF818106A4602A8DA
:1005900000F0FCFDB0F1FF3F81460BD000250DF1CE
:1005A000080B05E0D4E901211BF8050090476D1CFC
:1005B0004D45F7D308F10100B0428046E4DB206AE4
:1005C000384420622046FFF7EDFEBDE8FF9F0000A3
:1005D000E23B00002DE9F0418046D21D22F00702E7
:1005E0000025D2E90002F52915A614D0011E72F1EA
:1005F000000106DA0023D0EB030063EB020211A630
:1006000008E0D8F800108B0701D50FA602E04907D3
:1006100001D50EA601251146002408F1240704E0A7
:1006200000F05CF930323A55641C50EA0102F7D10F
:100630002B46324621464046BDE8F04100F093B9D2
:10064000000000002D0000002B0000002000000032
:1006500030B4002100F1240408E002F00705D208BC
:10066000303542EA4372DB086554491C52EA0305FF
:10067000F3D10468002310A2250707D5A40600D4EF
:1006800021B1C46901230DA2641EC46130BC00F015
:100690006AB910B5044621461068FFF79DFE024670
:1006A0002046BDE810400023D2E7D21D22F007010A
:1006B000D1E90023CCE7000000000000300000007A
:1006C000F0B40D460188090502D5214C7C4402E0B6
:1006D0001F4C7C440E34002100F1240608E002F097
:1006E0000F071209E75D42EA03721B097754491CA0
:1006F00052EA0307F3D102780023120704D5702DC4
:1007000006D009B1022311342246F0BC00F02BB907
:1007100001231034F8E770B504460D4621461068F1
:10072000FFF75AFE024629462046BDE870400023E6
:10073000C6E7D21D22F00703D3E90023C0E7036810
:10074000126843F0200303600823C3610023B7E766
:10075000443A00002DE9F05F894604464FF0000A54
:10076000DFF874B1FB44C0F820A02046E168884758
:10077000002874D0252806D0D4E901219047206AAA
:10078000401C2062F1E700265F462046E16888476A
:100790002028054607DB312D05D2781910F8200CEA
:1007A00008B10643F1E7B00701D526F00406C4F806
:1007B0001CA00027C4F818A02A2D09D0284602F052
:1007C000D2FA38B304EB8708303DC8F8185019E066
:1007D00059F8041B204604EB87029161E1688847C1
:1007E000012F054618D1E069002820DA26F02006FE
:1007F0001DE0D8F8180000EB800005EB4000303811
:10080000C8F818002046E1688847054602F0ABFAB0
:100810000028EED1012F0AD02E2D08D12046E16804
:1008200088477F1C0546022F46F02006C4DBA069DE
:10083000002803DA404246F00106A061F00701D02B
:1008400026F010066C2D0BD0682D09D04C2D39D018
:100850006A2D35D0742D35D07A2D33D016E038E09E
:10086000E1682F4620468847B842054609D16C2FDB
:1008700026D04FF48060E16806432046884705464D
:1008800004E06C2F1AD04FF4807006430DB3A5F12D
:100890004100192802D8203546F400664A46294608
:1008A000204626604E46FFF7A1FC80B101280BD000
:1008B000F61D26F0070000F1080956E74020E4E79E
:1008C0008020D8E70020D6E706F104094DE7284646
:1008D00052E7206ABDE8F09FD439000030B5B0F18E
:1008E0000A024FEA900E71F100034EEA817EB0EBEE
:1008F0000E0061EB91014FEA101E4EEA017E10EBF3
:100900000E0041EB11114FEA102E4EEA016E10EB72
:100910000E0041EB11214FEA104E4EEA014E10EB52
:100920000E0041EB1141401841F100014FEAD000A7
:1009300040EA41704FEAD10110EB80054FEA810493
:1009400044EA907444EB01046D1944EB0404521B17
:10095000A3414FF0000348BF0A3200D530BD401C10
:1009600041F1000130BD2DE9F0470D469946924610
:10097000044600F124080168880604D5E06921F0E6
:100980001001216000E00120A84201DD471B00E0CA
:100990000027A1697A1902EB0900081AA0612078E2
:1009A000C00602D42046FFF7E7FC002608E0D4E9A1
:1009B00001211AF806009047206A401C761C20622C
:1009C0004E45F4DB2078C0060AD52046FFF7D4FC5C
:1009D00006E0D4E9012130209047206A401C2062C3
:1009E000381EA7F10107F4DC07E0D4E9012118F86B
:1009F00005009047206A401C2062281EA5F10105D1
:100A0000F3DC2046FFF7CEFC2078000602D502205A
:100A1000BDE8F0870120FBE770472DE9FF4F0C464A
:100A20001E464FF0FF378BB0D2E90001DDF8608041
:100A30000A908A46C1F30A5505B93D460021084689
:100A40004FF00000BAF1000F00F4400005DA00EBAF
:100A500080004FF4400101EA50004FEA9059B9F18B
:100A6000010F00DDB9460A9850EA4A000ED044F65C
:100A70001050A5F2FF3545432F14B8F1000F1ED0DA
:100A80007542291E1EDDC9F100021CE0B8F1010FFC
:100A90004FF0000001D0302103E0F24305E0215483
:100AA000401CB042FBDB30460022002121540B9950
:100AB000C1F80880C1E900200FB0BDE8F08FBD1B70
:100AC0006D1CDEE74A4600DA694206A800F0F0FB3A
:100AD00006AB93E8070003AB83E8070050460A998A
:100AE00000F0ADFC8DE80700A0F500501F38009025
:100AF0000398002D0ADD42F21F014A4608440023F4
:100B000003A90390684600F016FF09E0A0F5005025
:100B10004A461F38002303A90390684600F020FFCF
:100B20008DE807000004000C03D04FF0FF304108AF
:100B300000E01046B8F1000F03D0002200921546E5
:100B40001EE0751E05D4FFF7C9FE303262556D1EDA
:100B5000F9D5B3460122084302D000227F1C04E0ED
:100B60002078302801D100227F1E002A099784D0E6
:100B70001DE0112D07DAFFF7B1FE303262556D1C12
:100B800050EA0102F5D1084302D00098C8B10EE046
:100B90000021681E05E0235C625C63542254401E01
:100BA000491C8142F7DBAB46A81B401E0990002080
:100BB00004F80B000B98099AC0F80880C0E9002BD4
:100BC0007AE711264FF0000857E72DE9F04F8846E5
:100BD0000446D21D22F0070191B0D1E90001CDE910
:100BE0000A0102F0ACF802460B98C00F01D02D208C
:100BF00007E02068810701D52B2002E0202101EACF
:100C0000C000032A099001D0072A05DB03464146AC
:100C1000204600F00DFB0BE12078800601D5E0694D
:100C200000E00620B8F1650F814606D0B8F1660FE6
:100C300018D0B8F1670F70D131E00020B9F1110F71
:100C4000009001DB112301E009F101030AAA01A9C7
:100C50000CA8FFF7E2FEDDE90C70002609F10105A2
:100C6000834647E001204B4600904FF000470AAA18
:100C700001A90CA8FFF7D1FEDDE90DB00C995D4686
:100C8000002610B909F101000D18B9EB050003D4D5
:100C9000C0F1FF3609F10105A5EB09002BE0B9F120
:100CA000010F01DA4FF001090020B9F1110F009096
:100CB000484601DD112300E003460AAA01A90CA859
:100CC000FFF7ABFEDDE90C704D4600268346207829
:100CD00000070AD4AB4500DA5D4601A8012D04DD0A
:100CE000411911F8011C302907D04F4502DA17F1DC
:100CF000040F04DA012082460FE06D1EEEE7002F9C
:100D000002DCED1B3E4403E0781CA84200DD7D1CA4
:100D1000B81B00F1010A4FF000472078000703D408
:100D2000AA4501DB4FF0FF3A0021B7F1004F0DF16A
:100D300043088DF8431024D002202B23002F01DA22
:100D40007F422D230A21021EA0F1010000DC5FB1C9
:100D500097FBF1FC97FBF1F201FB1C7C17460CF1B1
:100D6000300C08F801CDEEE7A8F1010003702188EE
:100D7000090501D5452100E06521A0F1010800F831
:100D8000011C09980FA9A1EB0807FF1D00B1012064
:100D9000411901EBEA70A1693844081A401EA061AC
:100DA0002078C00602D42046FFF7E6FA099828B159
:100DB000D4E901219047206A401C20622078C006B7
:100DC00022D52046FFF7D8FA1EE0002E04DBB345FB
:100DD00002DD01A8805D00E03020D4E901219047C8
:100DE000206A401C2062761CAAF101005FEA000A1A
:100DF0000AD100F019FAC0680168405CD4E9012109
:100E00009047206A401C2062281EA5F10105DCDC09
:100E100007E0D4E9012118F8010B9047206A401C33
:100E20002062381EA7F10107F3DC2046FFF7BAFA6B
:100E3000032011B041E600002DE9F04F04460D46B5
:100E4000D21D22F0070089B0D0E900974846394604
:100E500001F075FF0246F80F01D02D2307E020684E
:100E6000810701D52B2302E0202101EAC0038DF880
:100E700020300BB1012000E00020032A824601D07F
:100E8000072A04DB2946204600F0D2F93FE120780A
:100E9000800601D40D2500E0E569C7F30A560D2D43
:100EA00049DA00214FEA175B08464FF00000002F97
:100EB00000F4400007DA00EB80004FF4400100EB43
:100EC000D07001EA60008115012901DD4FF0FF318A
:100ED00000224FEA850CBCF1180F06D31346ACF183
:100EE00018004FF08052C24003E04FF4801323FA01
:100EF0000CF30CF10C0CBCF1200F04D3ACF1200C62
:100F000009FA0CF001E007FA0CF000294FF0004854
:100F100001DD18B90FE00ED140450CD319EB0209E1
:100F20005F4121B9404502D19F4329EA0209BBEB49
:100F3000175F00D0761C2088000502D57B487844D6
:100F400002E07A487844193808AA302302F80A30B7
:100F5000037C0AF10101002E0AF1020A53546A4689
:100F600002DC4FF0300101E04FF031014FF0010899
:100F70008DF8001002D0A6F2FF3603E059EA4701CF
:100F800000D06B4E002D02DC2178090704D54FF00C
:100F900002082E218DF80110C44600210BE0C7F392
:100FA00003433F01C35C491C6D1E02F8083005294C
:100FB00008F1010801DA002DF1DC00210CE000EB62
:100FC0001973491C1B786D1E082902F808304FEA76
:100FD000091908F1010801DA002DF0DC21688B06FF
:100FE00002D516E0A8F10108E04505DD02EB080393
:100FF00013F8013C302BF5D0B8F1000F09DD02EBFE
:10100000080313F8013C2E2B03D1090701D4A8F1E2
:101010000108002D05DD3E2102F808106D1E08F1C3
:101020000108407C002E02F8080008F1010804DAEB
:101030002D20764202F8080002E02B2002F808007A
:101040000A214FF47A70864208F101080BDB96FB07
:10105000F0F3303302F8083096FBF0F308F10108A2
:1010600000FB136601E0642E0CDB642096FBF0F3BA
:10107000303302F8083096FBF0F308F1010800FB6A
:10108000136601E00A2E06DB96FBF1F0303002F821
:10109000080008F1010896FBF1F001FB1060303008
:1010A00002F80800A16908F1010808EB050202EB4B
:1010B0000A00081AA0612078C00602D42046FFF773
:1010C0005BF9216A08AE01EB0A00206204E0D4E972
:1010D000012116F8010B9047BAF1010AF7D22078E6
:1010E000C00602D52046FFF747F96E4609E016F81C
:1010F000010B3E280FD0D4E901219047206A401C03
:101100002062B8F10108F2D22046FFF74BF909B08E
:101110000320BDE8F08F206A2844206203E0D4E970
:101120000121302090476D1EEBD3F8E71E320000FE
:1011300002FCFFFF10B5436913B1AFF3008001E07B
:10114000FFF753F9012010BD127800F124010A7055
:1011500000224A700122EDE711684FF0FF32E9E703
:1011600010B5436913B1AFF3008001E0FFF7D4F984
:10117000012010BD128800F1240182840022C28463
:101180000122EDE711684FF0FF32E9E770B516462E
:101190000C46054600F040F8036893F80101012869
:1011A00006D0FF2C0FD8185D68B101202C7070BDDF
:1011B000D3F807013246214603F2071303442846B9
:1011C000BDE8704018474FF0FF3070BD754600F025
:1011D000EBF8AE4605006946534620F00700854609
:1011E00018B020B5FFF77AF8BDE820404FF00006B0
:1011F0004FF000074FF000084FF0000B21F00701FF
:10120000AC46ACE8C009ACE8C009ACE8C009ACE841
:10121000C0098D467047000010B500F005F8001DAC
:1012200010BD00BF4924000000487047B0130020E3
:101230002DE9F0411F46044603260168072A01F400
:10124000006004DB08B116A505E016A503E008B1AF
:1012500015A500E015A521F010002060A069C01EB2
:10126000A0610FB1401EA0612046FFF785F84FB185
:10127000D4E9012138469047206A401C2062C01CF6
:10128000206206E0206AFAE7D4E9012115F8010B93
:101290009047761EF8D22046FFF784F8BDE8F0812B
:1012A0004E414E006E616E00494E4600696E66000A
:1012B0002DE9F047814616468AB0354878440DC876
:1012C0008DE80D0032487844801C03AC0DC884E8DA
:1012D0000D0041F69B300844372190FBF1F290FB62
:1012E000F1F5A5F1800501FB12041B3C02D5644217
:1012F000012000E00020DFF898A080460027FA4493
:10130000AAF1BE0A0EE0E0070AD03246684607EBB3
:10131000470101230AEB810100F022FB8DE8070061
:1013200064107F1C002CEED1194F7F44AE3F19E0B2
:10133000E80715D007EB04100DF1180A90E80E002D
:101340008AE80E00C068F04201D198190890324630
:10135000012306A903A800F003FB03AB83E8070001
:101360006D10641C002DE3D14FF001033246694635
:10137000B8F1000F03A802D000F0DDFA01E000F0A0
:10138000EFFAC9E90001C9F808200AB0BDE8F08702
:10139000302F000010B50446AFF300802046BDE8B2
:1013A0001040FEF786BF00000048704790130020F1
:1013B0004FF0013C50F8042B51F8043B9A4221D1E4
:1013C000A2EB0C03934313EACC1317D150F8042B70
:1013D00051F8043B9A4215D1A2EB0C03934313EA54
:1013E000CC130BD150F8042B51F8043B9A4209D18D
:1013F000A2EB0C03934313EACC13DBD04FF00000B5
:10140000704700BFD01A01BAB1FA81F101F018019A
:1014100022FA01F0CB40C1F12001DBB2C0B2C01A08
:101420002CFA01F3D11A914311EAC311E6D17047A6
:1014300001491820ABBEFEE72600020070475FEAB4
:10144000400C08BF91F0000F4FEA8C234FEAC122F5
:1014500043EA51514FEA1C5018BF00F5F0404FEAE3
:10146000300018BF41F000415FEA6C5C00F0298059
:10147000BCF1FF3F08BF40F080407047130C06BF2F
:1014800012044FF0100C4FF0000C130E04BF1202A8
:101490000CF1080C130F04BF12010CF1040C930F94
:1014A00004BF92000CF1020CD30F04BF52000CF1E8
:1014B000010C11464FF00002A0F11F00A0EB0C0040
:1014C000704711F0004F08BF704731F000413FF402
:1014D000D5AF0B0C06BF09044FF0100C4FF0000CF9
:1014E0000B0E04BF09020CF1080C0B0F04BF09011D
:1014F0000CF1040C8B0F04BF89000CF1020CCB0F14
:1015000004BF49000CF1010CCCF12003A0EB0C004E
:1015100022FA03F302FA0CF241EA030100F101009E
:10152000704720F07F4C80EA030023F07F47ACEB4C
:10153000070303F57C5300F0004003F1FF032DE99E
:1015400080494FEA154B09B44FEA144325EA0B4E84
:1015500024EA03480FF2042606EB132749083E78D5
:101560005FEA320203FB0667C7F5000707FB06F6D2
:101570004FEA54374FEAD64606F1020607FB066CDF
:10158000CCF1005C4FEA1C472CEA074C07FB06F441
:101590000CFB06F504EB15464FEA961634BF002007
:1015A0004FF000404FEAD13706FB07FC4FEA1C4CD6
:1015B0000CFB0BF7D21B03FB0CF761EB07010CFBD9
:1015C0000EF7B0EB074072EB17420CFB08F734BF85
:1015D000A2EB0742B2EB074261EB17414FEA0C4422
:1015E0004FEA910706FB07FC4FEA1C4C0CFB0BF77C
:1015F000B0EBC74072EB573203FB0CF734BFA2EBE2
:10160000C742B2EBC74261EB57310CFB0EF7B0EBB0
:10161000C70072EB57720CFB08F734BFA2EBC7028E
:10162000B2EBC70261EB5771039F4FEA816141EA58
:10163000921104EBCC044FEAD1374FEA826206FBE9
:1016400007FC42EA90124FEA80604FEA1C4C0CFB08
:101650000BF7D21B03FB0CF761EB07010CFB0EF73A
:10166000B0EB074072EB17420CFB08F734BFA2EB5C
:101670000742B2EB074261EB17414FEA8C554FEA44
:10168000910704EB9C2406FB07FC4FEA1C4C0CFB67
:101690000BF7B0EBC74072EB573203FB0CF734BFCC
:1016A000A2EBC742B2EBC74261EB57310CFB0EF71E
:1016B000B0EBC70072EB57720CFB08F734BFA2EB1C
:1016C000C702B2EBC70261EB577115EB4C254FEA2D
:1016D000816141EA92114FEA82624FEAD13742EAD0
:1016E000901206FB07FC44F100044FEA80604FEAC9
:1016F0001C4C0CFB0BF7D21B03FB0CF761EB070137
:101700000CFB0EF7B0EB074072EB17420CFB08F72F
:1017100034BFA2EB0742B2EB074261EB174115EB76
:101720001C154FEA813141EA92414FEA823242EA86
:1017300090424FEA80304FEA0C7644F1000448EAC8
:1017400003434EEA0B484FF0000EB2EB080C71EB6E
:10175000030724BF624639464EEB0E0E4FF0000BD6
:101760000018524149414BEB0B0BB2EB080C71EBEB
:1017700003077BF1000B24BF624639464EEB0E0E89
:101780004FF0000B0018524149414BEB0B0BB2EBF1
:10179000080C71EB03077BF1000B24BF624639464E
:1017A0004EEB0E0E51EA020718BF46F0010616EB8B
:1017B0000E7655F1000254F1000103D5BDE8890110
:1017C000BDE80088BDE88901BDE80048B61952416E
:1017D00041EB0101A3F10103704780807F7E7D7C96
:1017E0007B7A7978777676757473727171706F6EB3
:1017F0006E6D6C6C6B6A6A6968686766666564645E
:10180000636362616160605F5F5E5E5D5D5C5C5BE7
:101810005B5A5A5959585857575656555555545456
:10182000535352525251515050504F4F4F4E4E4DB4
:101830004D4D4C4C4C4B4B4B4A4A4A494949484800
:101840004847474747464646454545444444444340
:1018500043434342424242414141002B9C4630D4E3
:1018600077002BD01CB54FEA370703B44FF01000B8
:101870004FF01001BAF1000F06D0BCF1000FDCBF31
:1018800040F0080040F008014FF000000FBCBDE838
:1018900010400BF1010BBBF1010F08BF5FEA170706
:1018A00022BF12F1010211F101014FF0004143F199
:1018B000000300F0004043EA00007047F9D35708E6
:1018C000D0E746EA064613F1400F4FEA16461FDD01
:1018D00013F1200FDFBF16430A46002120335B427D
:1018E000BED0C3F1200746EA064602FA07F74FEAE0
:1018F000164646EA0706C3F1200722FA03F201FA68
:1019000007F721FA03F14FF0000342EA0702A7E7C5
:1019100046EA020646EA06464FEA164646EA010647
:10192000BCBF46EA0646360C4FF000034FF00002FB
:101930004FF0000194E72DE9804C9A46934670B42D
:1019400091E8380007C831EA400C48BF34EA430C3C
:1019500003D5FFF7E6FDFFF780FFF0BCBDE8008C84
:101960002DE9804C9A46934670B491E8380007C838
:1019700010F0804F08BF13F0804F03D100F005F83E
:10198000FFF76BFFF0BCBDE8008C20F07F4780EADA
:10199000030023F07F4C07EB0C03A3F57C5300F00E
:1019A0000040A3F1FE0392F0000F00F0B38095F029
:1019B000000F00F077802DE901494FEA11404FEA0E
:1019C000144621EA004800FB06FC24EA064708FB0F
:1019D00006F607FB08F800FB07F718EB06484CEB88
:1019E000164C4FEA124B18EB07484FEA15464CEBE2
:1019F000174022EA0B4E0BFB06FC25EA06470EFBBE
:101A000006F607FB0EFE0BFB07F71EEB064E4CEB34
:101A1000164C4FF000061EEB074E4CEB174B18EB25
:101A20000B0840F1000018EB0E0B58EB000840F1DA
:101A300000008F1A4FF000013CBFC943661B14BF62
:101A4000B5EB040C00213CBFC943F61B4FEA174419
:101A50004EEA8E0E27EA04454FEA1C4704FB076254
:101A60002CEA074C05FB07F70CFB05F604FB0CFC06
:101A700016EB074642EB174216EB0C4642EB1C42B4
:101A80001BEB060658EB0202414146EA9E0601D5D1
:101A9000BDE80189B619524141EB0101A3F10103EF
:101AA000BDE801894FEA14454FEA114724EA05468B
:101AB00021EA074C05FB07F406FB07F70CFB06F1D0
:101AC00005FB0CFC11EB074144EB17444FEA1247AE
:101AD00011EB0C4144EB1C4422EA074C05FB07F2D6
:101AE00006FB07F70CFB06F605FB0CFC16EB07469E
:101AF00042EB174216EB0C4642EB1C456A1854F1B8
:101B0000000148BF7047B619524141EB0101A3F1F2
:101B10000103704795F0000F37D04FEA11424FEAAA
:101B2000144721EA024624EA074C02FB07F106FBB0
:101B300007F70CFB06F402FB0CFC14EB074441EB2B
:101B400017414FEA154714EB0C4441EB1C4125EAC1
:101B5000074C02FB07F506FB07F70CFB06F602FB3A
:101B60000CFC16EB074645EB174516EB0C4645EB10
:101B70001C42121951F1000148BF7047B619524179
:101B800041EB0101A3F1010370474FEA14454FEA0D
:101B9000114724EA054621EA074C05FB07F106FB3D
:101BA00007F70CFB06F24FF0000605FB0CFC12EBEE
:101BB000074241EB174112EB0C4251EB1C4148BF6D
:101BC0007047921841EB0101A3F101037047000037
:101BD00010B586B004460121102000F0B5FB0121AC
:101BE000C80400F0A1FB4FF48060ADF8100018208D
:101BF0008DF8130003208DF8120004A91B4800F093
:101C00005FF84FF40060ADF8100004208DF8130069
:101C100004A9164800F054F800940020ADF8040020
:101C2000ADF80600ADF80800ADF80C000C20ADF8DA
:101C30000A0069460E4801F00FF834208DF81400B0
:101C400001208DF815008DF816008DF8170005A8F5
:101C500000F048F9012240F22551054800F0D7FF75
:101C60000121034800F09DFF06B010BD00100140A7
:101C7000004C004000BFFEE77047000010B56FF059
:101C8000040000F0B3FC0A4800680A49B0FBF1F018
:101C9000094908700846007800EB4001C1EBC0100C
:101CA0004FF6FF7101EAC0000449088010BD000032
:101CB0000400002000127A002C0000202E000020DA
:101CC0002DE9F041024600250026002000230024D3
:101CD000002791F803C00CF00F0591F803C00CF039
:101CE000100CBCF1000F03D091F802C04CEA0505BE
:101CF00091F800C0BCF1000F31D0146800202BE037
:101D00004FF0010C0CFA00F3B1F800C00CEA030626
:101D10009E4220D183004FF00F0C0CFA03F7BC4316
:101D200005FA03FC4CEA040491F803C0BCF1280F47
:101D300006D14FF0010C0CFA00FCC2F814C00AE006
:101D400091F803C0BCF1480F05D14FF0010C0CFA1B
:101D500000FCC2F810C0401C0828D1D31460B1F8B0
:101D600000C0BCF1FF0F34DD546800202EE000F10C
:101D7000080C4FF0010808FA0CF3B1F800C00CEAA7
:101D800003069E4221D183004FF00F0C0CFA03F79B
:101D9000BC4305FA03FC4CEA040491F803C0BCF10F
:101DA000280F05D100F1080C08FA0CF8C2F81480CD
:101DB00091F803C0BCF1480F07D100F1080C4FF0B7
:101DC000010808FA0CF8C2F81080401C0828CED38D
:101DD0005460BDE8F0810246002093680B400BB1CF
:101DE000012000E000207047016170470AB10161E5
:101DF00000E04161704700000248007A0249087023
:101E00007047000068130020481300200448007A3F
:101E100040B2044908700248007B40B248707047E5
:101E2000541300203800002000BFFEE708B5012150
:101E3000102000F089FA48208DF803000320ADF847
:101E400000008DF8020069460148FFF739FF08BD20
:101E50000010014008B50121102000F075FA0121A1
:101E6000042000F071FA0820ADF8000010208DF871
:101E7000030003208DF8020069461648FFF720FF93
:101E80000420ADF8000010208DF8030003208DF829
:101E9000020069460F48FFF713FF4FF48070ADF85A
:101EA000000010208DF8030003208DF80200694621
:101EB0000948FFF705FF4FF480710748FFF794FFCB
:101EC00004210448FFF790FF08210248FFF78CFF28
:101ED00008BD0000001001400008014000BFFEE7FF
:101EE0007047000070B5002100230F22C47804B3AE
:101EF000154C246804F4E064C4F5E064210AC1F1DF
:101F00000403CA40447804FA03F18478144021435E
:101F100009010E4C0678A155047804F01F05012430
:101F2000AC4005786D11AD0005F1E025C5F8004124
:101F300009E0047804F01F050124AC40044D067844
:101F4000761145F8264070BD0CED00E000E400E09D
:101F500080E100E070B500240EE00021204600F092
:101F6000EFF8002504E0002000F07AF9681CC5B203
:101F7000802DF8DB601CC4B2082CEEDB70BD0000C5
:101F800008B50121082000F0DFF914208DF80300C6
:101F900003208DF802004FF48070ADF80000694610
:101FA0000A48FFF78DFE4FF40070ADF80000694657
:101FB0000648FFF785FE012211020448FFF716FFCD
:101FC000012251020148FFF711FF08BD000C01403A
:101FD00070B50546002415E08020204100EA050286
:101FE0004FF400710E48FFF701FF012211020C4867
:101FF000FFF7FCFE00224FF480710948FFF7F6FE60
:10200000601CC4B2082CE7DB012211020448FFF770
:10201000EDFE00224FF480710148FFF7E7FE70BD2E
:10202000000C014010B5012251020A48FFF7DEFE04
:10203000012211020748FFF7D9FE00224FF4007178
:102040000448FFF7D3FE00224FF480710148FFF7E8
:10205000CDFE10BD000C014010B500224FF4007100
:102060000648FFF7C3FE012211020448FFF7BEFE37
:10207000012251020148FFF7B9FE10BD000C0140DA
:1020800010B5FFF77DFF642000F074FEAE2000F075
:10209000D7F8002000F0D4F8102000F0D1F840204C
:1020A00000F0CEF8B02000F0CBF8812000F0C8F8A6
:1020B000FF2000F0C5F8A12000F0C2F8A62000F033
:1020C000BFF8A82000F0BCF83F2000F0B9F8C82005
:1020D00000F0B6F8D32000F0B3F8002000F0B0F81C
:1020E000D52000F0ADF8802000F0AAF8D82000F04C
:1020F000A7F8052000F0A4F8D92000F0A1F8F120FD
:1021000000F09EF8DA2000F09BF8122000F098F81A
:10211000DB2000F095F8302000F092F8202000F04D
:102120008FF8022000F08CF88D2000F089F8142040
:1021300000F086F8AF2000F083F8FFF70BFF10BD2A
:1021400070B505460C4645F0B00000F079F8102156
:1021500041EA141000F074F804F00F0000F070F879
:1021600070BD00002DE9F04106460F461546984621
:102170007A1ED206110E721E5206100EFFF7E0FFF5
:10218000002417E0B8F1000F0AD0A5F12001204A81
:1021900002EB0111095DC943C8B200F061F807E024
:1021A000A5F120011A4A02EB0111085D00F058F870
:1021B000601CC4B2082CE5DB7A1ED206110E721E1A
:1021C000012303EB4202D0B2FFF7BAFF00241BE069
:1021D000B8F1000F0CD0A5F120010D4A02EB01125D
:1021E00004F10801515CC943C8B200F039F809E0B4
:1021F000A5F12001064A02EB011204F10801505C2E
:1022000000F02EF8601CC4B2082CE1DBBDE8F081C0
:102210001A3B00082DE9F04107460E461546984640
:10222000002408E02A5D3019C1B243463846FFF762
:1022300099FF601CC4B2285D0028F3D1BDE8F0818D
:1022400010B50446FFF7EEFE7820FFF7C1FE002030
:10225000FFF7BEFE2046FFF7BBFEFFF7FDFE10BDF9
:1022600010B50446FFF7DEFE7820FFF7B1FE4020F0
:10227000FFF7AEFE2046FFF7ABFEFFF7EDFE10BD09
:1022800010B586B004460121082000F05DF8012158
:10229000880400F049F84FF48060ADF81000182071
:1022A0008DF8130003208DF8120004A91B48FFF7D6
:1022B00007FD4FF40060ADF8100004208DF8130006
:1022C00004A91648FFF7FCFC00940020ADF80400B8
:1022D000ADF80600ADF80800ADF80C000C20ADF824
:1022E0000A0069460E4800F0B7FC27208DF814005C
:1022F00001208DF815008DF816008DF8170005A83F
:10230000FFF7F0FD012240F22551054800F07FFC67
:102310000121034800F045FC06B010BD000C01404F
:10232000004800407047000029B1064AD2690243C4
:10233000044BDA6104E0034AD2698243014BDA615B
:10234000704700000010024029B1064A926902431A
:10235000044B9A6104E0034A92698243014B9A61FB
:10236000704700000010024030B500210022002418
:1023700000232D4D6D6805F00C0121B1042905D015
:10238000082923D105E0294D056022E0274D05608D
:102390001FE0254D6D6805F47012234D6D6805F43E
:1023A0008034022505EB92421CB9214D554305604E
:1023B0000BE01D4D6D6805F400351DB11C4D5543F6
:1023C000056002E0194D5543056002E0174D0560B8
:1023D00000BF00BF144D6D6805F0F0010909154DEF
:1023E0006B5C0568DD4045600F4D6D6805F4E0618C
:1023F000090A104D6B5C4568DD4085600A4D6D68CB
:1024000005F46051C90A0B4D6B5C4568DD40C56041
:10241000054D6D6805F44041890B074D6B5CC5683F
:10242000B5FBF3F5056130BD0010024000127A00E3
:1024300000093D001800002028000020704700001F
:1024400000B589B001211120FFF77EFF012148036B
:10245000FFF77AFF18208DF82300C020ADF8200088
:1024600003208DF8220008A92448FFF729FC44F630
:102470001F60ADF818004720ADF814000020ADF83B
:102480001A00ADF816008DF81C0005A91C4800F0D4
:1024900051FA6020ADF804000120ADF806000420D8
:1024A000ADF808000020ADF80A00ADF80C00ADF85A
:1024B0000E004FF48070ADF810000020ADF812004F
:1024C00001A90F4800F07CF901A90D4800F0CEF9F0
:1024D00008210B4800F0C0F90821094800F018FA5B
:1024E0000121074800F024F90121054800F032F9E4
:1024F0000121034800F03AF909B000BD0010014085
:102500000034014010B500F001F810BD0CB50020FA
:10251000019000903348006840F4803031490860F1
:1025200000BF3048006800F4003000900198401C63
:102530000190009818B90198B0F5A06FF1D1294821
:10254000006800F4003010B10120009001E000208C
:1025500000900098012843D12348006840F0100003
:10256000214908600846006820F00300086008461A
:10257000006840F0020008601A4840681949486045
:102580000846406848600846406840F480604860FB
:102590000846406820F47C1048600846406840F4D3
:1025A000E81048600846006840F08070086000BF8E
:1025B0000C48006800F000700028F9D00948406815
:1025C00020F00300074948600846406840F00200D8
:1025D000486000BF0348406800F00C000828F9D1AB
:1025E0000CBD00000010024000200240042808D169
:1025F0004FF0E021096941F004014FF0E022116140
:1026000007E04FF0E021096921F004014FF0E022DA
:10261000116170477047000010B51348006840F022
:1026200001001149086008464068104908400E49F9
:102630004860084600680E4908400B490860084693
:10264000006820F4802008600846406820F4FE00FE
:1026500048604FF41F008860FFF754FF4FF00060A0
:102660000449086010BD0000001002400000FFF89F
:10267000FFFFF6FE08ED00E010B501210E4800F066
:1026800084F8C0B10D480068401C0C490860084639
:102690000068322807D30A480068401C08490860CF
:1026A00000200649086000F08BFB00F02DFD0121A1
:1026B000014800F04CF810BD000800403400002034
:1026C000300000201FB501210420FFF72DFEC72098
:1026D000ADF8080041F61F40ADF804000020ADF849
:1026E0000A00ADF806008DF80C0001A90F4800F0B3
:1026F00021F91E208DF8000002208DF801008DF8D0
:10270000020001208DF803006846FFF7EBFB012172
:10271000064800F019F801221146044800F046F876
:102720000121024800F016F81FBD0000000800401B
:1027300021B1028842F08002028004E002884FF654
:102740007F731A4002807047CA4302827047CA43AF
:102750000282704721B1028842F00102028004E047
:1027600002884FF6FE731A400280704731B1B0F80C
:10277000442042F40042A0F8442005E0B0F8442090
:10278000C2F30E02A0F84420704730B50246002084
:1027900000230024158A05EA0103958905EA01044E
:1027A00013B10CB1012000E0002030BD1AB18389C3
:1027B0000B43838102E083898B4383817047000050
:1027C00070B5002400220023058C4FF6FE763540BC
:1027D0000584028C8388048B4FF68F752C40B51EC0
:1027E0002C400D882C43751E2A400D892A434D88A4
:1027F0002A43144DA8420BD0134DA84208D0134DC4
:10280000A84205D0124DA84202D0124DA84213D1C1
:102810004FF6F7752A404D892A434FF6FB752A403B
:102820008D882A434FF6FF652B404FF6FF552B400E
:102830008D892B43CD892B4383800483CD88858666
:10284000028470BD002C0140003401400040014072
:1028500000440140004801400A460021018B4FF628
:10286000F7731940114301837047000070B50024CD
:1028700000220023058C4FF6EF7635400584028C4C
:102880008388048B48F6FF752C404FF6FF452C409B
:102890000D884FF6FF7606EA05252C434FF6DF75C7
:1028A0002A400D8906EA05152A434D8806EA0515D2
:1028B0002A43154DA84202D0144DA8421DD14FF60F
:1028C0007F752A404D894FF6FF7606EA05152A43A3
:1028D0004FF6BF752A408D8806EA05152A434FF644
:1028E000FF352B404FF2FF752B408D8906EA850599
:1028F0002B43CD8906EA85052B4383800483CD884D
:102900000587028470BD0000002C014000340140A6
:102910000A460021018B4FF2FF7319404FF6FF73F7
:1029200003EA0223194301837047818670470187B8
:1029300070470000002202881D4B98420ED01D4BAC
:1029400098420BD0B0F1804F08D01B4B984205D075
:102950001A4B984202D01A4B984204D14FF68F730B
:102960001A404B881A43174B984207D0164B98428F
:1029700004D04FF6FF431A40CB881A4302808B885D
:1029800083850B8803850A4B98420BD0094B9842EC
:1029900008D00E4B984205D00D4B984202D00D4BFB
:1029A000984201D10B7A038601238382704700008D
:1029B000002C0140003401400004004000080040A9
:1029C000000C004000100040001400400040014096
:1029D000004401400048014010B540F225512E4806
:1029E00000F0EBF8002855D02B4800F0A1F9C4B254
:1029F000FF2C09D12948006830B901202749086017
:102A0000FF202749086040E0EF2C0AD123480068E6
:102A1000012806D1022021490860EF2020494860A2
:102A200033E01E480068022805D103201B490860D6
:102A30001B48846029E019480068032819D1FE2C3E
:102A400008D1002015490860FE201549C860FFF72D
:102A5000D3F91AE0FE2C18D000201049086000BFFE
:102A600004E000210E4A42F82010401C0428F8DB44
:102A70000BE000200949086000BF04E00021084A7B
:102A800042F82010401C0428F8DB40F2255102488F
:102A900000F078F810BD0000004C00404C130020FE
:102AA0006813002010B540F22551334800F085F836
:102AB00000285FD0304800F03BF9C4B2FF2C09D1A8
:102AC0002E48006830B901202C490860FF202C49AD
:102AD00008604AE0EF2C0AD128480068012806D196
:102AE000022026490860EF20254948603DE0234840
:102AF0000068022805D1032020490860204884602E
:102B000033E01E480068032805D104201B490860F3
:102B10001B48C46029E019480068042819D1FE2C1C
:102B200008D1002015490860FE2015490861FFF70B
:102B30006DF91AE0FE2C18D000201049086000BF83
:102B400004E000210E4A42F82010401C0528F8DB62
:102B50000BE000200949086000BF04E00021084A9A
:102B600042F82010401C0528F8DB40F225510248AD
:102B700000F008F810BD0000004800403C000020B4
:102B80005413002010B50022002340F66A14A1421D
:102B900000D100BF0A1201249440A3B2DC43048098
:102BA00010BD21B1828942F40052828104E0828901
:102BB0004DF6FF731A408281704770B502460024BB
:102BC00000230025002040F66A16B14200D100BF64
:102BD000C1F3421501F01F03012606FA03F3012D8C
:102BE00002D19689334006E0022D02D1168A334085
:102BF00001E0968A33400C12012606FA04F4168886
:102C0000344013B10CB1012000E0002070BDF0B5DC
:102C10000346002400260025002040F66A17B9422A
:102C200000D100BF1846C1F3421401F01F0601276E
:102C300007FA06F5012C01D10C3004E0022C01D179
:102C4000103000E014301AB107682F43076002E02B
:102C50000768AF430760F0BD2DE9F04786B0054631
:102C60000E460024A24600BFA1460027B08900B14D
:102C700000BF2F462C8A4CF6FF700440F0880443B6
:102C80002C82AC894EF6F3100440B0883189084399
:102C9000718908430443AC81AC8A4FF6FF4004407D
:102CA000B0890443AC8201A8FFF75EFB1F4887424E
:102CB00002D1DDF810A001E0DDF80CA0A88900F435
:102CC000004040B10AEBCA0000EB0A10316849002D
:102CD000B0FBF1F807E00AEBCA0000EB0A1031681C
:102CE0008900B0FBF1F86420B8FBF0F00401200982
:102CF000642101FB1089A88900F4004040B1322012
:102D000000EBC900B0FBF1F000F00700044308E05D
:102D1000322000EB09106421B0FBF1F000F00F004D
:102D200004432C8106B0BDE8F08700000038014064
:102D300001468888C0F30800704700BFFEE74900DD
:102D400050EAC12018BF04204A0D18BF40F001000E
:102D500040F2FF72B2EB515F08BF40F00200012861
:102D600008BF0520704730380A2801D2012070477B
:102D7000002070470146114A12884A434FF0E02371
:102D80005A6100229A611A46126942F001021A61E0
:102D900000BF4FF0E022106900F001021AB100F408
:102DA0008032002AF5D04FF0E022126922F00102B1
:102DB0004FF0E0231A6100229A6170472E00002034
:102DC00010B501214348FFF706F808B1012000E0E3
:102DD00000204149087202213E48FEF7FCFF08B17D
:102DE000012100E000213C48017500206EE000EB6D
:102DF0004001394A12F8211021B1012916D00229C7
:102E000062D128E000EB4001334A02EB8101097AEC
:102E100059B9012100EB40022F4B03F82210002189
:102E200000EB400203EB820251604DE000EB4001F9
:102E3000294A02EB8101097A31B9022100EB4002F3
:102E4000254B03F8221005E0002100EB4002224B45
:102E500003F8221038E000EB40011F4A02EB810129
:102E6000097A012914D1002100EB40021A4B03F822
:102E7000221000EB40011A4602EB81014968462905
:102E800021D2012100EB400203EB820251721AE0D1
:102E900000EB4001104A02EB81014968491C00EB3C
:102EA00040020D4B03EB8202516000EB40011A46D9
:102EB00002EB81014968462905D9012100EB400256
:102EC00003EB8202917200BF00BF401C02288EDB20
:102ED00010BD000000100140781300201CB54FF415
:102EE000A06101F007025D4B18684FF6FF03184020
:102EF0005B4B034343EA0220584B186000BFFEF7C8
:102F0000BDFEFEF7A7FFFFF7BBF8FFF799FAFEF744
:102F10008DFF4FF4E130FFF7B3F94FF41650FEF791
:102F200057FE40F2DC514F48FFF701FD40F2AA5135
:102F30004C48FFF7FAFC00BF4B4800780028FBD054
:102F4000494840780028F7D000BF4848007800285A
:102F5000FBD0FFF7B7FB80E045480078F0B9424866
:102F600090F9003043A20121084600F0E9F83E48FC
:102F700090F9013041A20121022000F0E1F83B4824
:102F8000037840A20121032000F0DAF8414842A270
:102F900001210368042000F0D3F84AE034480078A7
:102FA000012821D13F48006800F07CFB3EA2CDE91A
:102FB00000010121084600F0C3F83E48006800F017
:102FC00071FB3DA2CDE900010121022000F0B8F81B
:102FD0003C48006800F066FB3BA2CDE900010121FE
:102FE000032000F0ADF824E021480078022820D129
:102FF0003848006800F056FB37A2CDE900010121F6
:10300000084600F09DF83748006800F04BFB36A2F8
:10301000CDE900010121022000F092F83548006856
:1030200000F040FB34A2CDE900010121032000F0B3
:1030300087F83448407A01280FD10D480078401CA9
:103040000B49087008460078022801DD002008704E
:10305000FEF780FF00202B4948727DE70CED00E071
:103060000000FA0500340140380000204813002019
:1030700000000020783A253364000000793A2533B7
:1030800064000000626C7565746F6F74683A256443
:10309000000000003000002054696D653A2564206E
:1030A0002020730044000020784B703A252E3166B2
:1030B0000000000048000020784B693A252E326657
:1030C000000000004C000020784B643A252E316649
:1030D0000000000050000020794B703A252E316628
:1030E0000000000054000020794B693A252E32661A
:1030F0000000000058000020794B643A252E31660C
:10310000000000007813002010B50C48007801285A
:1031100006D0022807D0032808D004280BD108E0E5
:1031200000F0A4F807E000F057F904E000F0CCF854
:1031300001E000F025F800BF10BD0000481300209A
:103140000FB470B58AB004460D46202102A8FDF7E1
:10315000E9F8002611A8019002A8019A1099FDF73C
:10316000CFF8064600200190002302AA29462046F7
:10317000FFF750F830460AB070BC5DF814FB000051
:103180002DE9F0413248407D012807D131480078CF
:10319000401C3049087000212D4841752D480078A9
:1031A00020B1012805D0022824D11FE01E240F25BC
:1031B00020E0294801880088401C274A10802748C1
:1031C00050F82140104601880088401C1080244897
:1031D00050F8215010460088B0F5C87F05DB02206A
:1031E0001C49087000201146088003E005246FF098
:1031F0001D0500BF00BF1B4991F90000214600F0EA
:103200001BF900F2AA58404600F016FB0646154985
:1032100091F90100294600F091F900F2DC5840468E
:1032200000F00AFB0746304600F0E6FA1FFA80F885
:1032300041460D48FFF779FB384600F0DDFA1FFAEA
:1032400080F841460848FFF772FBBDE8F0810000B6
:103250007813002044130020461300209C06002011
:10326000DC0C0020380000200034014070B5144907
:1032700091F900000F2100F0DFF800F2AA56304665
:1032800000F0DAFA04460E4991F901000F2100F02E
:1032900055F900F2DC56304600F0CEFA05462046DD
:1032A00000F0AAFA86B231460648FFF73EFB2846F0
:1032B00000F0A2FA86B231460248FFF738FB70BD33
:1032C00038000020003401402DE9F0413B48407DAA
:1032D000012807D13A480078401C3949087000217C
:1032E000364841753648007805283AD2DFE800F0C4
:1032F00003061B1F35001E240F2532E01E24314813
:1033000001880088401C2F4A10802F4850F8215017
:1033100010460088C82805DB0220294908700020D3
:10332000114608801DE01E246FF0090519E02548AC
:1033300001880088401C234A1080244850F821400E
:103340006FF0090510460088C82805DB04201C49D9
:10335000087000201146088003E00F246FF0090573
:1033600000BF00BF1A4991F90000214600F064F83F
:1033700000F2AA58404600F05FFA0646144991F957
:103380000100294600F0DAF800F2DC58404600F06F
:1033900053FA0746304600F02FFA1FFA80F84146EC
:1033A0000C48FFF7C2FA384600F026FA1FFA80F8F8
:1033B00041460848FFF7BBFABDE8F08178130020CA
:1033C00041130020421300205C0000207C030020F9
:1033D000380000200034014070B5154991F9000013
:1033E0000F2100F029F800F2AA56304600F024FA26
:1033F00004460F4991F901006FF0090100F09EF8B1
:1034000000F2DC56304600F017FA0546204600F080
:10341000F3F986B231460748FFF787FA284600F0ED
:10342000EBF986B231460348FFF781FA70BD000020
:1034300038000020003401402DE9FC5F04460D46B1
:10344000601B354908600868002801DB014600E080
:1034500041420F2903DD00203049087009E00120B6
:103460002E4908702E4800682B49096808442C49E9
:103470000860294909682B4A1268881A00F0DCF9AB
:10348000814629480168484600F002FA0746234869
:10349000007800F0E9F901902148006800F0CCF9CB
:1034A000009022480168009800F0F2F983460199E3
:1034B00000F0EEF981461848006800F0BDF9834637
:1034C0001B480168584600F0E3F98246494600F07F
:1034D00015F98046394600F011F9064600F070F9FA
:1034E000144908600C4800680E49086011480068DB
:1034F000B0F5967F03DD4FF496700E4908600D48D5
:10350000006810F5967F02DA0B480A4908600948FE
:103510000068BDE8FC9F0000201300202C13002051
:1035200028130020241300204C0000204800002015
:10353000440000201C130020D4FEFFFF2DE9FC5F97
:1035400004460D46601B354908600868002801DB09
:10355000014600E041420F2903DD00203049087098
:1035600009E001202E4908702E4800682B4909689F
:1035700008442C490860294909682B4A1268881AAE
:1035800000F05AF9814629480168484600F080F960
:1035900007462348007800F067F901902148006849
:1035A00000F04AF9009022480168009800F070F994
:1035B0008346019900F06CF981461848006800F0D4
:1035C0003BF983461B480168584600F061F9824682
:1035D000494600F093F88046394600F08FF80646D9
:1035E00000F0EEF8144908600C4800680E490860C5
:1035F00011480068B0F5967F03DD4FF496700E49D0
:1036000008600D48006810F5967F02DA0B480A49F9
:10361000086009480068BDE8FC9F000034130020E2
:10362000401300203C1300203813002058000020D5
:10363000540000205000002030130020D4FEFFFF73
:1036400010B500290AD00878002807D0054878442A
:10365000FDF7AEFE002801D0002010BD02487844DE
:1036600010BD0000DA0B0000D20B000010B50029DD
:103670000AD00878002807D005487844FDF798FE5E
:10368000002801D0002010BD0248784410BD000081
:10369000CA0B0000C20B00000808A0F500114FEA99
:1036A0003101704743004FEAD30C4FEA3C0C4340D2
:1036B0001FBF40070CF1605113F0FE4F70471CF024
:1036C000006F03D100200CF0004170470CF0004364
:1036D00043EA507010B540EACC0000F05AF900BF40
:1036E000000000924FEA0001FFF7D6BF4FF0004103
:1036F0004FF00000A1F500217047000090EA010F93
:1037000048BF81F0004100F19681421A3CBF801A07
:1037100089184FEAD0524FF07F4C1CEA410FA2EBC0
:10372000D15318BF9CEA026F00F03B804FF0004C71
:103730004CEA00204CEA012121FA03FC10EB0C0CAE
:103740001ED202F1FF325FEA1C2040EBC25038BFAC
:1037500070471CF07F0F4FEA400C18BFBCF17F4F41
:1037600038BF7047C3F12003994008BF20F0010023
:10377000BCF17F4F38BF7047A0F1C04000F04FB997
:103780004FEA3C00000A40EBC25028BF1CF0FF0F7C
:103790004FEA400CE6D018BFBCF17F4F38BF7047EE
:1037A000EAE79CEA026F05D010EA5C0F08BF00F060
:1037B0000040704710B500F0ECF800BF64FBBE3E5F
:1037C00041000B0ED3F19E0208D950F400034FEADA
:1037D000032323FA02F048BF4042704710B500F0BF
:1037E000D8F800BF49922480002070476FF0004253
:1037F00082EA200070470000C10DD1F19E0206DB75
:103800004FEA002343F0004323FA02F070470042DE
:1038100007D54FEA4001B1F1FE4F02D24FF0000050
:10382000704710B500F0B5F8499224800020704729
:103830006FEA20007047000010F0004148BF40428E
:10384000B0FA80F310FA03F2C3F19D030BD051EAF2
:10385000C35101EB1220530638BF704700F101003D
:1038600008BF20F001007047B0FA80F310FA03F2AD
:10387000C3F19D030AD0D90501EB1220530638BFCE
:10388000704700F1010008BF20F001007047000000
:103890004FF47F0C1CEAD0121EBF1CEAD11392EA2F
:1038A0000C0F93EA0C0F00F0478090EA010F48BF1D
:1038B00042F480724FF0004C4CEA00204CEA0121A7
:1038C00002EB0302A0FB0113A2F50002002918BFBE
:1038D00043F001035B0028BF4FEA330342EB22426F
:1038E0005FEA132C4CEBC2502EBFBCEB436FB2F51A
:1038F0007C0F70474FEA036CBCF1004F08BF20F00B
:103900000100B2F57C0F38BF70470BD582F0FF0283
:1039100012F5803FC8BF704700F1C040D8BF00F02B
:103920000040704700F5000C5FEA4C0C48BF704740
:10393000B0F1C04000F073B890EA010F0CEAD11367
:1039400048BF42F48072624538BF634504D280EAC2
:10395000010000F00040704710B500F01AF800BFF9
:103960008900013E00F007B800F009B85FEA410C99
:103970005FEA1C6C08D080EA010000F050B85FEAF2
:10398000400C5FEA1C6CF6D14FF00040A0F58000BF
:1039900070470EF1020E2EF0030E5EF8044B244227
:1039A00004D44FEA4102B2F17F4F11D84FEA4003ED
:1039B000B3F17F4F0CD80ED14FEAD07CB2F17F4FDC
:1039C0000CEB4C0C0CF1020C08BF4CEBD17C04E06E
:1039D0004FF0080C01E04FEAD17C0CEB4C0324FAC9
:1039E00003F404F00704B4F1040C06D20EEB840CCB
:1039F000BDE810404CF0010C6047DFE80CF0070810
:103A000002024FF00040A0F5800010BD08464200C1
:103A100018BFD2F1807288BF00F0004010BDFF21B6
:103A200041EAD050C005704790EA010F48BF81F0CD
:103A300000413FF56AAE421A04D882F00042A0EB82
:103A4000020011444FEAD0524FF07F4C1CEA410F64
:103A5000A2EBD15318BF9CEA026F4AD04FF0004C42
:103A60004CEA00204CEA012121FA03FCB0EB0C0CDB
:103A70000FD412F0FE0F36D05FEA4C001DD50012B5
:103A800040EBC25038BF70471CF03F0F18BF704763
:103A90000BE0A2F101025FEA1C2040EBC25038BFEC
:103AA00070471CF07F0F18BF7047C3F12003994087
:103AB00014BF401E20F00100704780084FEA122317
:103AC00008BF7047B0FA80FCA2EB0C02CCF1280CC6
:103AD00060FA0CF093EA122F04BF00EBC25070475B
:103AE0004FEAC3707047130A5FEADC1008BF7047E3
:103AF000F6E79CEA026F04D010EA5C0F08BF0020D2
:103B0000704710B5FFF745FF40DFF63E81F00040FB
:103B10007047FDF75AB8FDF78FB9000000000000AC
:103B200000000000000000000000000000F800009D
:103B30000000000000333000000000100C06100CE4
:103B40000600000000000000000040C07840C0787F
:103B50004000043F04043F040400007088FC083067
:103B60000000001820FF211E0000F008F000E018FF
:103B7000000000211C031E211E0000F008887000B8
:103B800000001E2123241927211010160E0000000A
:103B900000000000000000000000000000E0180429
:103BA0000200000000071820400000020418E00096
:103BB00000000040201807000000404080F08040D6
:103BC00040000202010F01020200000000F00000AC
:103BD00000000101011F01010100000000000000C0
:103BE000000080B070000000000000000000000035
:103BF00000000001010101010101000000000000BE
:103C00000000003030000000000000000000806074
:103C10001804006018060100000000E010080810F9
:103C2000E000000F102020100F00001010F800001E
:103C300000000020203F20200000007008080888B5
:103C40007000003028242221300000300888884885
:103C500030000018202020110E000000C02010F8B5
:103C6000000000070424243F240000F80888880886
:103C700008000019212020110E0000E0108888188B
:103C80000000000F112020110E0000380808C8386D
:103C900008000000003F000000000070880808884D
:103CA0007000001C222121221C0000E010080810D6
:103CB000E0000000312222110F00000000C0C0000F
:103CC0000000000000303000000000000080000014
:103CD0000000000080600000000000008040201014
:103CE000080000010204081020004040404040400D
:103CF0004000040404040404040000081020408070
:103D000000000020100804020100007048080808A4
:103D1000F0000000003036010000C030C828E81074
:103D2000E0000718272423140B000000C038E0002F
:103D30000000203C23020227382008F88888887079
:103D40000000203F202020110E00C0300808080885
:103D50003800071820202010080008F8080808106C
:103D6000E000203F202020100F0008F88888E80895
:103D70001000203F20202320180008F88888E80839
:103D80001000203F200003000000C0300808083861
:103D9000000007182020221E020008F80800000872
:103DA000F808203F210101213F20000808F80808F9
:103DB00000000020203F2020000000000808F80834
:103DC0000800C08080807F00000008F888C02818A4
:103DD0000800203F20012638200008F808000000D5
:103DE0000000203F20202020300008F8F800F8F8DC
:103DF0000800203F003F003F200008F830C00008C6
:103E0000F808203F200007183F00E01008080810BD
:103E1000E0000F10202020100F0008F80808080804
:103E2000F000203F210101010000E0100808081007
:103E3000E0000F18242438504F0008F8888888883C
:103E40007000203F2000030C302000708808080814
:103E500038000038202121221C00180808F8080822
:103E600018000000203F2000000008F808000008AB
:103E7000F808001F202020201F000878880000C8B4
:103E80003808000007380E010000F80800F80008A4
:103E9000F800033C0700073C0300081868808068AE
:103EA000180820302C03032C30200838C800C838EC
:103EB00008000000203F2000000010080808C83853
:103EC00008002038262120201800000000FE0202F1
:103ED00002000000007F40404000000C30C00000A5
:103EE0000000000000010638C00000020202FE00CF
:103EF0000000004040407F00000000000402020279
:103F000004000000000000000000000000000000AD
:103F10000000808080808080808000020204000099
:103F20000000000000000000000000008080808091
:103F300000000019242222223F2008F8008080007F
:103F40000000003F112020110E0000000080808042
:103F50000000000E11202020110000000080808849
:103F6000F800000E112020103F200000808080808B
:103F70000000001F222222221300008080F0888887
:103F800088180020203F20200000000080808080D2
:103F90008000006B94949493600008F80080808007
:103FA0000000203F210000203F2000809898000062
:103FB00000000020203F2020000000000080989892
:103FC000000000C08080807F000008F80000808032
:103FD0008000203F24022D302000000808F8000057
:103FE00000000020203F2020000080808080808012
:103FF0008000203F20003F20003F808000808080A4
:104000000000203F210000203F20000080808080B1
:104010000000001F202020201F00808000808000E2
:10402000000080FFA12020110E0000000080808091
:104030008000000E112020A0FF8080808000808002
:10404000800020203F21200001000000808080802F
:1040500080000033242424241900008080E0808024
:1040600000000000001F2020000080800000008071
:104070008000001F202020103F20808080000080D2
:10408000808000010E3008060100808000800080E2
:1040900080800F300C030C300F0000808000808087
:1040A00080000020312E0E312000808080000080B2
:1040B000808080818E701806010000808080808062
:1040C00080000021302C2221300000000000807C84
:1040D000020200000000003F404000000000FF001E
:1040E000000000000000FF0000000002027C8000D1
:1040F00000000040403F00000000000601010202F5
:1041000004040000000000000000000000000000A7
:10411000000000003031323334353637383941420F
:104120004344454640305800303132333435363719
:1041300038396162636465664030780004000008C5
:1041400000000000000000020001000010303132C9
:1041500033343536373839616263646566787000A8
:1041600030313233343536373839414243444546AD
:104170005850000002400000000000A000000000B5
:1041800005400000000000C8000000000C400000D6
:104190000000409C00000000194000000020BCBE50
:1041A0000000000034400000BFC91B8E0000000466
:1041B000B5400000504BCFD06607E2CF01000000B1
:1041C0006C4100003E8251AADFEEA73401000000DE
:1041D000D9420000DCB5A0E23A301F97FFFFFFFF95
:1041E000B4450000FD25A0C8E9A3C14FFFFFFFFFB4
:1041F000FF3F00000000008000000000FF3F0000C3
:10420000000000800000000054430008000000206F
:10421000541300006C0100080845000854130020E6
:104220009C060000D00100081C00000043000000B4
:10423000F8FFFFFF0C0000000E0000000F00000060
:104240002E0000001001000043000000F8FFFFFFF7
:104250000040404040404040404041414141414099
:10426000404040404040404040404040404040404E
:1042700040050202020202020202020202020202DD
:1042800002202020202020202020200202020202E2
:10429000020290909090909010101010101010103A
:1042A0001010101010101010101010100202020246
:1042B000020288888888888808080808080808088A
:1042C0000808080808080808080808080202020286
:1042D000400000000000000000000000000000009E
:1042E00000000000000000000000000000000000CE
:1042F00000000000000000000000000000000000BE
:1043000000000000000000000000000000000000AD
:10431000000000000000000000000000000000009D
:10432000000000000000000000000000000000008D
:10433000000000000000000000000000000000007D
:10434000000000000000000000000000000000006D
:10435000000000002200015005A24A04000160098B
:1043600001020304060708090C6110000617020485
:1043700006080001200B80400AD7A33C0000C8417A
:104380000C100A4260E53B0000F0410E1A011A04CD
:10439000021D0D04021D0C04021D0B04021D0A0463
:1043A000021D0904021D0804021D0704021D060463
:1043B000021D0504021D0404021D0304021D020463
:1043C000021D0104011E01021DFF01021DFE040267
:1043D0001DFD04021DFC04021DFB04021DFA040263
:1043E0001DF904021DF804021DF704021DF6041E47
:1043F0001E3A03012E0402311D0402311C04023155
:104400001B0402311A04023119040231180402316A
:10441000170402311604023115040231140402316A
:10442000130402311204023111040231100402118A
:104430000F04023D1D04023D1C04023D1B04023D0D
:104440001A04023D1904023D1804023D1704023DFE
:104450001604023D1504023D1404023D1304023DFE
:104460001204023D1104023D1004023D0F04023DFE
:104470000E04023D0D04023D0C04023D0B04023DFE
:104480000A04023D0904023D0804023D0704023DFE
:104490000604023D05040DFF800C0DBD800C0D3699
:1044A000980C0D76B00C0D6EC00C0D6ED00C0D2E50
:1044B000E00C021DF504021DF404022DF304021D9C
:1044C000F204021DF104021DF004021DEF04021D9E
:1044D000EE04021DED04021DEC04021DEB04022D8E
:1044E000EA04021DE904021DE804021DE704021D9E
:1044F000E604021DE504021DE404021DE304023D7E
:08450000E2040D366B0400001B
:0400000508000131BD
:00000001FF
