:020000040000FA
:10000000880800206D0200008102000083020000C9
:10001000850200008502000085020000000000004B
:100020000000000000000000000000008502000049
:10003000850200000000000085020000850200002B
:100040008502000085020000850200008502000094
:100050008502000085020000850200008502000084
:100060008502000085020000850200008502000074
:100070008502000085020000850200008502000064
:100080008502000085020000850200008502000054
:100090008502000085020000850200008502000044
:1000A0008502000085020000850200008502000034
:1000B0008502000085020000850200008502000024
:1000C0008502000085020000850200008502000014
:1000D0008502000085020000850200008502000004
:1000E000850200008502000000000000850200007B
:1000F00085020000850200008502000085020000E4
:1001000085020000850200008502000085020000D3
:1001100000000000000000008502000085020000D1
:1001200085020000850200008502000085020000B3
:1001300085020000850200008502000085020000A3
:1001400000000000000000000000000000000000AF
:100150008502000085020000850200008502000083
:10016000000000000000000000000000000000008F
:10017000000000000000000000000000000000007F
:10018000000000000000000000000000000000006F
:10019000000000000000000000000000000000005F
:1001A000000000000000000000000000000000004F
:1001B0008502000085020000850200008502000023
:1001C0008502000085020000850200008502000013
:1001D0008502000085020000850200008502000003
:1001E000850200008502000085020000000000007A
:1001F000000000008502000085020000850200006A
:1002000085020000850200000000000000000000E0
:1002100085020000850200008502000085020000C2
:1002200085020000850200008502000085020000B2
:1002300085020000850200008502000085020000A2
:100240008502000085020000850200008502000092
:100250008502000085020000850200008502000082
:100260008502000085020000850200004EF68850DD
:10027000CEF20000016841F47001016000F004B8A2
:10028000FEE7FEE7FEE70000DFF810D007F0DEFB38
:1002900000480047E9260000AFF3008088080020EE
:1002A000EFF3108072B67047EFF310807047EFF3F2
:1002B000108062B6704730BF704780F31188704776
:1002C000EFF31180704700000138FDD17047000046
:1002D0002648006840F470002449086070472348AD
:1002E000006820F4700021490860704720480068C9
:1002F00020F0804040F000401D49086070471C48D5
:10030000006840F040401A4908607047184800688B
:1003100020F04040164908607047154908310968C7
:1003200021F080610143124A083211607047104980
:100330000831096821F0007101430D4A083211604B
:1003400070470B490831096821F080710143084A60
:1003500008321160704706490831096821F44001EC
:100360000143034A083211607047000088ED00E045
:1003700034EF00E030B50246F84B1824F848006826
:10038000F84D2840F84DA84201D1F84B00BF00219C
:1003900008E053F83100904203D103EBC1004068FC
:1003A00030BD491CA142F4D30020F9E702F001035B
:1003B0001BB1D0F800340B4302E0D0F800348B437B
:1003C000C0F8003402F002031BB1D0F820340B4314
:1003D00002E0D0F820348B43C0F82034704730B5A9
:1003E000024601208840C1B2D2F80034D2F820443D
:1003F00003EA010008B1012000E0002004EA010541
:100400000DB1022500E00025284330BD02F00103B4
:100410001BB1D0F808340B4302E0D0F808348B430A
:10042000C0F8083402F002031BB1D0F804340B43C7
:1004300002E0D0F804348B43C0F8043402F0040323
:100440001BB1D0F80C340B4302E0D0F80C348B43D2
:10045000C0F80C3402F4803323B1D0F8383543F0BF
:10046000010303E0D0F8383523F00103C0F8383534
:100470007047F0B5024601208840C1B2D2F8083476
:10048000D2F80444D2F80C64D2F8385503EA0100DB
:1004900008B1012000E0002004EA01070FB10227A3
:1004A00000E00027384306EA01070FB1042700E007
:1004B0000027384305F00107384310B14FF480306E
:1004C000F0BD0020FCE7F0B502F001051DB1D0F849
:1004D00000550D4302E0D0F800558D43C0F800559B
:1004E00002F002051DB1D0F804550D4302E0D0F82A
:1004F00004558D43C0F8045502F004051DB1D0F831
:1005000008550D4302E0D0F808558D43C0F8085552
:1005100002F008051DB1D0F818550D4302E0D0F8DF
:1005200018558D43C0F8185502F010051DB1D0F8CC
:100530003C550D4302E0D0F83C558D43C0F83C5586
:10054000002416E00125A5400D4085B1D0F8C45F18
:1005500067000326BE40B543C0F8C45FD0F8C45F4F
:100560006700C2F34116BE403543C0F8C45F651C46
:10057000ECB2082CE6DB03F001051DB1D0F80C55F8
:100580000D4302E0D0F80C558D43C0F80C5503F034
:1005900002051DB1D0F810550D4302E0D0F81055FA
:1005A0008D43C0F8105503F004051DB1D0F8145563
:1005B0000D4302E0D0F814558D43C0F8145503F0F4
:1005C00008051DB1D0F81C550D4302E0D0F81C55AC
:1005D0008D43C0F81C5503F400751DB1D0F8445587
:1005E0000D4302E0D0F844558D43C0F8445503F460
:1005F00040751DB1D0F840550D4302E0D0F840558C
:100600008D43C0F840551BB9D0F828550D4302E082
:10061000D0F828558D43C0F82855F0BDF0B51446E4
:100620001D4601268E40F1B2D0F800650E400EB195
:10063000012600E000263246D0F804650E400EB1D7
:10064000022600E000263243D0F808650E400EB1C5
:10065000042600E000263243D0F818650E400EB1A3
:10066000082600E000263243D0F83C650E400EB16B
:10067000102600E000263243D0F8C46F4F00FE4041
:1006800006F0030642EA46122260D0F80C650E40DE
:100690000EB1012600E000263346D0F810650E406A
:1006A0000EB1022600E000263343D0F814650E4058
:1006B0000EB1042600E000263343D0F81C650E403E
:1006C0000EB1082600E000263343D0F840650E4006
:1006D0004EB1D0F844650E4016B14FF4007601E0FB
:1006E0004FF4807633432B60F0BDD0F810240A43DA
:1006F000C0F810247047D0F810248A43C0F81024A2
:100700007047024611B1D2F818047047D2F81404A9
:10071000FBE7C0F81C14704770B504460D46204630
:10072000FFF728FE06462946304600F0F5FB304626
:1007300000F04EFC70BD70B504462046FFF71AFE6F
:100740000546284600F080FC284600F0FFFB70BDFF
:100750000246002000EB810010587047908E000088
:1007600000E00F400000FF7000000A10508F0000F2
:10077000002303EB8103C250704730B504460D4699
:10078000002229462046FFF711FE002301222946B8
:100790002046FFF798FE30BD30B504460D460222D4
:1007A00029462046FFF702FE082304222946204658
:1007B000FFF789FE30BD30B504460D4600222946BC
:1007C0002046FFF7F3FD0023012229462046FFF7CC
:1007D0007AFE30BD30B504460D4602222946204639
:1007E000FFF7E4FD0823042229462046FFF76BFEAD
:1007F00030BD30B504460D46022229462046FFF79B
:10080000D5FD0823042229462046FFF75CFE30BDB3
:1008100030B504460D46022229462046FFF7C6FDA4
:100820000823042229462046FFF74DFE30BD30B58F
:1008300004460D46022229462046FFF7B7FD08234D
:10084000012229462046FFF73EFE30BD30B5044662
:100850000D46002229462046FFF7A8FD0823012265
:1008600029462046FFF72FFE30BD30B504460D4621
:100870000823012229462046FFF725FE01222946AA
:100880002046FFF793FD30BD30B504460D460923E1
:10089000012229462046FFF716FE0122294620465E
:1008A000FFF784FD30BD30B504460D4602222946CF
:1008B0002046FFF77BFD0923012229462046FFF74A
:1008C00002FE30BD30B504460D46022229462046C0
:1008D000FFF76CFD0823012229462046FFF7F3FDB0
:1008E00030BD30B504460D46022229462046FFF7AA
:1008F0005DFD0823042229462046FFF7E4FD30BDB4
:1009000030B504460D46022229462046FFF74EFD2B
:100910000823042229462046FFF7D5FD30BD30B517
:1009200004460D46002229462046FFF73FFD0023DE
:10093000012229462046FFF7C6FD30BD30B50446EA
:100940000D46022229462046FFF730FD08230122EA
:1009500029462046FFF7B7FD30BD30B504460D46A9
:10096000022229462046FFF721FD082301222946BD
:100970002046FFF7A8FD30BD30B504460D460222E3
:1009800029462046FFF712FD0A2301222946204668
:10099000FFF799FD30BD30B504460D4602222946C9
:1009A0002046FFF703FD0823012229462046FFF7D2
:1009B0008AFD30BD30B504460D4602222946204648
:1009C000FFF7F4FC0823012229462046FFF77BFDB0
:1009D00030BD30B504460D46022229462046FFF7B9
:1009E000E5FC0823012229462046FFF76CFD30BDB7
:1009F00030B504460D46002229462046FFF7D6FCB6
:100A00000023012229462046FFF75DFD30BD30B5A9
:100A100004460D46022229462046FFF7C7FC08235C
:100A2000012229462046FFF74EFD30BD30B5044671
:100A30000D46002229462046FFF7B8FC4FF402730A
:100A4000012229462046FFF73EFD30BD30B5044661
:100A50000D46002229462046FFF7A8FC4FF4847378
:100A6000012229462046FFF72EFD30BD30B5044651
:100A70000D46022229462046FFF798FC0823012252
:100A800029462046FFF71FFD30BD30B504460D4610
:100A9000022229462046FFF789FC0A230122294623
:100AA0002046FFF710FD30BD30B504460D4602224A
:100AB00029462046FFF77AFC0823042229462046CF
:100AC000FFF701FD30BD30B504460D460222294630
:100AD0002046FFF76BFC0823012229462046FFF73A
:100AE000F2FC30BD014601F5A960704710B5014622
:100AF000C1F307401B4BDB6E01248440234033B11C
:100B0000012303EB4003184C54F8230003E0430097
:100B1000154C54F82300C1F30722D0F82C350F24CC
:100B20009440A34301F00F0494402343C0F82C35B4
:100B300010BDD0F834250A43C0F834257047D0F8EA
:100B400034258A43C0F834257047D0F830250A434D
:100B5000C0F830257047D0F830258A43C0F83025DA
:100B60007047000000E00F401090000030B50246D2
:100B7000D84B0624D8480068D84D2840D84DA84204
:100B800001D1D84B0A24002108E053F831009042EB
:100B900003D103EBC100406830BD491CA142F4DB26
:100BA0000020F9E7016A41F010010162704770B559
:100BB00003460C4616461846FFF7F4FF012E01D1F6
:100BC000C94A00E0C94A142000FB0240401E02EB63
:100BD00082018900B0FBF1F0451EDD60D3F8C00F43
:100BE00000F0010048B1C2482044401EC049B0FB9B
:100BF000F1F0451E45F08000D86070BD016A41F0FB
:100C0000200101620121C0F80418704700B50246B6
:100C10000B461046FFF7F2FFC2F8003800BD11B1D5
:100C2000012908D102E0C0F8002804E042F0800366
:100C3000C0F81C3800BF00BF7047016A21F01001E6
:100C4000016270470021C0F80418016A21F02001F8
:100C50000162704770B504460D462046FFF786FFD7
:100C600006462946304600F057F9304600F0B0F904
:100C700070BD70B504462046FFF778FF054628464C
:100C800000F0E2F9284600F061F970BD0121016130
:100C9000704702690A4302617047D0F80C1841F0AE
:100CA0000101C0F80C187047D0F80C280A43C0F8AE
:100CB0000C28704700210161704702698A43026174
:100CC0007047D0F80C1821F00101C0F80C187047DB
:100CD000D0F80C288A43C0F80C287047024629B186
:100CE000906908B1012070470020FCE7506908B105
:100CF0000120F8E70020F6E7024609B19069704745
:100D00005069FCE7024631B1D2F8140808B101205D
:100D100070470020FCE7D2F8100808B10120F7E77F
:100D20000020F5E7024611B1D2F814087047D2F856
:100D30001008FBE70121C16181617047C161704703
:100D40000121C0F818187047C0F81818704742EA17
:100D50004103036070470146C86A7047014648680E
:100D600000F0010008B1012070470020FCE70146B7
:100D7000486800F0400008B1012070470020FCE7FF
:100D8000416070470246516801F0010008B100203F
:100D9000704701F0120010B101F01C00F8E70020CC
:100DA000F6E7816070470146886870474162704786
:100DB00031B1D0F8202842F00102C0F8202805E027
:100DC000D0F8202822F00102C0F82028704731B165
:100DD000D0F8202822F00202C0F8202805E0D0F840
:100DE000202842F00202C0F8202870470146D1F8BE
:100DF00004087047C0F8081870470146D1F8080881
:100E00007047D0F8042F6FF30F02C0F8042FD0F80A
:100E1000042F0A43C0F8042F7047D0F8041F41F490
:100E20008041C0F8041F7047D0F8042F92B2C0F878
:100E3000042FD0F8042F0A43C0F8042F7047D0F8CD
:100E4000041F41F08041C0F8041F70470146D1F8EB
:100E5000080F704700BFD0F8082F02F00202002AE6
:100E6000F9D1C0F8001F70470246D2F8080F00F011
:100E7000020008B100207047C2F8001F0120FAE705
:100E8000014600BFD1F8080F00F480300028F9D1E6
:100E9000D1F8000F70470246D2F8080F00F48030F6
:100EA00008B100207047D2F8000F08700120F9E760
:100EB000016370470146486B7047C2680A43C260CD
:100EC000704741F00102C0F8042870470121C0F8C2
:100ED00004187047A090000000E00F400000FF7071
:100EE00000000A10D0900000801A0600A0860100C1
:100EF0008047370100BFFEE710B5FFF7D8F908B10A
:100F0000012010BD0020FCE710B5FFF7C9F908B1BA
:100F1000012010BD0020FCE730B50246B64C246825
:100F2000B64DAC420ED0B44C2368002005E053F817
:100F30002040B24D45F82040401C9B28F7D3AF4CD1
:100F4000AD4D2C60AD4C44F8221030BDAC49AB4ADD
:100F500042F820107047AB4951F82010AA4A1143BB
:100F6000A54A121D11607047A34A121D126802F4AF
:100F7000E061002006E0A34A52F820208A4200D116
:100F800002E0401C0828F6D300BF704710B50A469F
:100F900083089E4C54F8233019688307DC0EFF2326
:100FA000A34099438307DB0E02FA03F31943830836
:100FB000964C54F82330196010BD01468808934AB6
:100FC00052F8200000688A07D20ED040C0B27047A5
:100FD000042808D188491C31096841F48031864AC7
:100FE0001C3211602FE0052808D183491C310968A3
:100FF00041F40031804A1C32116024E0062808D1F7
:101000007D491C31096841F480217B4A1C32116002
:1010100019E00F2808D14FF0E021096941F00201E1
:101020004FF0E02211610EE010280CD3A0F1100166
:1010300001F01F0201219140A0F110025209744BEE
:1010400053F8222011607047042808D16A491C31E6
:10105000096821F48031684A1C3211602FE00528AC
:1010600008D165491C31096821F40031624A1C32FB
:10107000116024E0062808D15F491C31096821F479
:1010800080215D4A1C32116019E00F2808D14FF011
:10109000E021096921F002014FF0E02211610EE028
:1010A00010280CD3A0F1100101F01F020121914082
:1010B000A0F110025209574B53F8222011607047DB
:1010C00010B501460020042905D14B4A1C32126894
:1010D00002F4803028E0052905D1474A1C32126805
:1010E00002F4003020E0062905D1434A1C32126880
:1010F00002F4802018E00F2905D14FF0E022126998
:1011000002F0020010E010290ED3A1F110025209E2
:101110003F4B53F822201268A1F1100303F01F0483
:101120000123A34002EA030010BD022808D132497E
:10113000091F096841F000412F4A121F116024E085
:101140000E2808D12C49091F096841F080512A4A0C
:10115000121F116019E00F2808D12749091F0968DB
:1011600041F08061244A121F11600EE010280CD358
:10117000A0F1100101F01F0201219140A0F1100225
:101180005209254B53F82220116070470E2808D1D0
:101190001949091F096841F00061174A121F1160BF
:1011A00019E00F2808D11449091F096841F000719E
:1011B000114A121F11600EE010280CD3A0F110018B
:1011C00001F01F0201219140A0F110025209134BBE
:1011D00053F822201160704710B504462046FFF7EF
:1011E0006CF810BD10B5FFF76BF810BDA0F1100141
:1011F0000B4A11607047000008ED00E00004002079
:10120000F50E0000209100000000FA05409100005A
:10121000DC910000F09100000492000018920000A0
:1012200000EF00E010B501440B68F94C2340134374
:101230000B6002F0020323B1B0230B621B014B626F
:1012400004E08C230B6240F60C034B6210BD01449A
:101250000B6803F0020313B153080B6101E0531E46
:101260000B61704702461144086800F0020010B19B
:101270000869400070470869401CFBE7425842F08B
:10128000010242507047425822F00102425070471A
:1012900030B5044621F03F052819056805F0020520
:1012A00005B1520803699B1A01F001050DB1C36134
:1012B00000E0836130BD30B503460A4622F03F05A9
:1012C000E9180C6902F001050DB1C86900E08869F0
:1012D000201A0D6805F0020505B1400030BD10B5BB
:1012E0000144CA620B638C6A44F001048C6210BD35
:1012F0004218926A22F0010243189A627047016014
:10130000704741607047012A03D183680B438360B3
:1013100002E083688B4383607047012A03D1C3686E
:101320000B43C36002E0C3688B43C3607047012A6C
:1013300003D1436A0B43436202E0436A8B43436237
:101340007047012A03D103690B43036102E003697B
:101350008B430361704710B502465018AD4C031B18
:10136000A04246D009DCAC4B184468B140281FD0DD
:10137000802828D0C02868D130E0402B44D0802B72
:101380004DD0C02B61D155E0A4480068A44B184053
:10139000A44B984201D11A2010BDA0480068A04B70
:1013A0001840A14B984201D11A20F5E70020F3E73D
:1013B0009A4800689A4B18409B4B984201D11B20D9
:1013C000EAE70020E8E795480068954B1840964BFF
:1013D000984201D11C20DFE70020DDE78F4800683C
:1013E0008F4B1840904B984201D13B20D4E700200E
:1013F000D2E78A4800688A4B18408A4B984201D14C
:101400009620C9E70020C7E784480068844B18404D
:10141000844B984201D19720BEE70020BCE77F486B
:1014200000687F4B18407F4B984201D19820B3E76A
:101430000020B1E779480068794B1840794B984211
:1014400001D19920A8E70020A6E70020A4E72DE914
:10145000F04105460E46144631462846FFF77BFF0D
:10146000074621463846FFF757FD3846FFF7B0FDDF
:10147000BDE8F08170B504460D4629462046FFF7C9
:101480006AFF06463046FFF7DFFD3046FFF75EFD98
:1014900070BD014661480068614A1040614A90424F
:1014A00006D16248814201D1192070479A20FCE799
:1014B0005A4800685A4A10405B4A904206D15B483D
:1014C000814201D11920F0E70020EEE70020ECE78F
:1014D00070B504460D462046FFF7DBFF0646294659
:1014E0003046FFF719FD3046FFF772FD70BD70B54D
:1014F00004462046FFF7CDFF05462846FFF7A4FD2A
:101500002846FFF723FD70BD10B543185B681343F1
:101510004418636010BD10B543185B6893434418CA
:10152000636010BD03461944012A01D1C8687047A1
:101530008868FCE74318DA60704742690A434261F1
:10154000704742698A43426170474FF48031C161FC
:1015500070470246012901D1D06970479069FCE7C4
:10156000C161704730B54418E263A1F1400400F551
:10157000006545F8143030BD10B512B944186363E6
:1015800001E04418A36310BD034612B95818406B1C
:1015900070475818806BFBE710B503463AB9A1F1C4
:1015A000400003F5006404EB4000406810BDA1F169
:1015B000400003F5006404EB40008068F6E730B5B6
:1015C0003AB9A1F1400400F5006505EB44046360FD
:1015D00006E0A1F1400400F5006505EB4404A360BA
:1015E00030BDD0F8C82F40F207139A430A43C0F821
:1015F000C82F70470146D1F8C80F00F4807008B9B1
:1016000000207047D1F8C80F40F207121040F8E7E9
:101610000100F8FF40900240C07FFDBF00E00F4096
:101620000000FF700000051000000A10008002405A
:101630002DE9F0410346002001240026002514E096
:1016400004EA010CBCF1000F0DD04FEA400C02FA85
:101650000CFC4CEA06064FEA40084FF0030C0CFA6B
:1016600008FC4CEA05056400401C0828E8D3D3F8C0
:1016700028C02CEA050747EA060CC3F828C0BDE8D5
:10168000F0810000016841F00101016070470168CC
:1016900021F0010101607047036823F01E030B4332
:1016A0000360C26070470146886870478160704778
:1016B0000146486800F0020010B14FF0FF3070475B
:1016C0000120FCE70146486800F00100704701680E
:1016D00041F0200101607047016821F020010160A4
:1016E0007047036823F4E0730B430360531E0361E8
:1016F00070470146C869704701462D4A12682D4B54
:101700001A402D4B9A4206D12C4A914201D11D20FC
:1017100010E036200EE0264A1268264B1A40284B6D
:101720009A4206D1254A914201D11D2002E00020B3
:1017300000E00020704770B504460D462046FFF7D4
:10174000DBFF064629463046FFF7E6FB3046FFF74B
:101750003FFC70BD70B504462046FFF7CDFF05463F
:101760002846FFF771FC2846FFF7F0FB70BD026AC0
:101770000A4302627047026A8A4302627047024665
:1017800009B1906A7047506AFCE78162704701684E
:1017900041F4005101607047016821F4005101607B
:1017A0007047026822F470220A430260704700000A
:1017B00000E00F400000FF700000051000C0024074
:1017C00000000A10024600210AE0F74850F83100F4
:1017D000904204D3F44800EBC10040687047491CB4
:1017E0000729F2D30020F9E7F0B50146DFF8BCC3C2
:1017F000DCF860C1CCF38923DFF8B0C3DCF860C14A
:10180000CCF30905DFF8A4C3DCF864C1CCF3042CE5
:101810000CF10106DFF894C3DCF864C10CF01F0C76
:101820000CF10107B1FBF7F15A09A3EB421401FBDC
:1018300005F001FB02FC00EB5C1001FB04FC00EB7B
:101840009C20B0FBF6F0F0BDD8483C380068401C46
:1018500000027047D5480068D5490840D5498842FC
:1018600006D1D24880680004400900F50060704746
:10187000CE484038006880B2401CC002F7E7CB4831
:101880000068CB490840CC49884209D1C748403854
:101890000068C0F302400A30012101FA00F07047ED
:1018A0004FF48060FBE70146C1F30720C34A1044B0
:1018B00000F0704040F00070C1F30722BF4B1A44A3
:1018C000C2F3130240EA4210CAB240EA8200006842
:1018D00008B1012070470020FCE70146C1F3072052
:1018E000B74A104400F0704040F00070C1F3072286
:1018F000B34B1A44C2F3130240EA4210CAB240EAA0
:101900008200006808B1012070470020FCE710B594
:101910000121C0F30722AB4B1A4402F0704242F09F
:101920000072C0F30723A74C2344C3F3130342EA16
:101930004312C3B242EA8302116010BD10B5002108
:10194000C0F307229F4B1A4402F0704242F000722B
:10195000C0F307239B4C2344C3F3130342EA43120F
:10196000C3B242EA8302116010BD18B50121C0F371
:101970000722954B1A4402F0704242F00072C0F305
:101980000723914C2344C3F3130342EA4312C3B227
:1019900042EA830211600021009102E00099491C93
:1019A000009100991029F9D30021C0F30722864B3A
:1019B0001A4402F0704242F00072C0F30723824CD6
:1019C0002344C3F3130342EA4312C3B242EA83023D
:1019D000116018BD10B50121C0F307227B4B1A44DA
:1019E00002F0704242F00072C0F30723774C2344A8
:1019F000C3F3130342EA4312C3B242EA8302116003
:101A000010BD10B50021C0F30722704B1A4402F03C
:101A1000704242F00072C0F307236C4C2344C3F3BE
:101A2000130342EA4312C3B242EA8302116010BDBB
:101A300010B50121C0F30722654B1A4402F0704231
:101A400042F00072C0F30723614C2344C3F3130335
:101A500042EA4312C3B242EA8302116010BD10B5DC
:101A60000021C0F307225A4B1A4402F0704242F0A0
:101A70000072C0F30723564C2344C3F3130342EA16
:101A80004312C3B242EA8302116010BD10B50121B6
:101A9000C0F307224F4B1A4402F0704242F000722A
:101AA000C0F307234B4C2344C3F3130342EA43120E
:101AB000C3B242EA8302116010BD10B50021C0F329
:101AC0000722444B1A4402F0704242F00072C0F305
:101AD0000723404C2344C3F3130342EA4312C3B227
:101AE00042EA8302116010BD30490968304A114052
:101AF000304A91420ED130B12C49096E41F000615B
:101B00002A4A116618E02949096E21F00061274A26
:101B1000116611E040B12549B031096841F000512A
:101B2000224AC2F8B01007E02049B031096821F01C
:101B300000511E4AC2F8B010704710B50446214645
:101B40002C20FFF7E9F92C20FFF742FA10BD10B561
:101B50002C20FFF779FA2C20FFF7F8F910BD134974
:101B6000496D0143114A516570471049496D8143E0
:101B70000E4A516570470D4988657047014611B19D
:101B80000A48806D70470948006DFBE712490860FC
:101B900070471148006870470F4908310860704766
:101BA0000D48083000687047B893000000E00F400F
:101BB0000000FF700000051000000A1000E30F4055
:101BC00000EA0F4000E90F4000E50F4000E60F403B
:101BD00000E70F4000E80F40B4E10F40FE49086005
:101BE0007047FD49091D08607047FC48FC490860C2
:101BF00000BFFEE710B5FEF75EFB10BD10B5F8485C
:101C0000001D006840F00400F549091D0860FEF75A
:101C100052FBF348001D006820F00400F049091D44
:101C2000086010BDEF48C06D7047EE49C96D814333
:101C3000EC4AD1657047EB49C86770470146EA48EE
:101C4000084050B101F00040E34A383A1060E648DD
:101C500081380840E34AC2F85001DF483838016053
:101C600001F4007088B100BFDB483438006800F42C
:101C700040700028F8D0D8483438006800F440702C
:101C8000B0F5807F01D0002070470120FCE7D249E9
:101C9000503108607047D0485030006870472DE9D7
:101CA000FE4F05468A46CF480068D0490840D049D3
:101CB000884202D10020BDE8FE8FC5F3841605F0EE
:101CC0003800102805D1DFF82C93002700BF152617
:101CD00033E005F03800302804D147F230594FF492
:101CE00000172AE005F03800382804D14FF40049E5
:101CF0004FF4800721E005F03800D8B91A2E01DC36
:101D0000092E01DA0020D6E7BB4850F826904FF4A0
:101D1000401747F04077B348C06F20F01C00019097
:101D2000072E03DB019840F010000190AD490198A7
:101D3000C86702E04FF00009002705F46050002852
:101D40007ED105F0380028B105F03800102801D008
:101D50000020B0E7C5F3026BA848FFF733FDA149A7
:101D6000C03108609F48D0F8B000A54900EA0104DE
:101D700044F000449B48B0300460093E0BEBCB00BC
:101D8000A04901EB001000EBC60040689549D1F86E
:101D9000641188420DD10BEBCB009A4901EB001086
:101DA00050F8360040F400008B4928390968884211
:101DB00002D00120009001E000200090009808B3BC
:101DC0008848B030006838438649C1F8B0000BEB52
:101DD000CB008C4901EB001000EBC60040687E4947
:101DE000243908600BEBCB00864901EB001050F85A
:101DF000360079492839096801F400010843764919
:101E000028390860804850F82B005044401EB0FB31
:101E1000FAF84846FFF7E8FCB0FBF8FA5046FFF73F
:101E2000D1FC7049C03108606E48D0F8600100F400
:101E3000000068B10098012812D16A48B03000E073
:101E400034E0006840F080406649C1F8B00007E027
:101E500061482838006840F400006249C1F8600118
:101E60004FF40040029009E05B482038006800F021
:101E7000010000B105E00298401E0290029800287F
:101E8000F2DC00BF029870B15648B0300468A8F187
:101E90000100384340F08050044344F0004451486E
:101EA000C0F8B0403CE04FF0000A39E05148FFF77D
:101EB00089FC4C49C03108604A48D0F8600120F4E0
:101EC00000004849C1F860010846D0F8B0404F48CA
:101ED000044044F000444348B0300460BAF1000FBD
:101EE00002D14FF000080AE0B9FBFAF8B8F1000F90
:101EF00001D0A8F1010808F10100B9FBF0FA504641
:101F0000FFF760FC3749C03108603648D0F8B04070
:101F100047EA8820044344F000443248B03004606B
:101F20005046C8E62DE9F04106462E48056E046F7E
:101F300045F4006525F4800544F4006405660467F3
:101F400005F0010010B306F00100F8B966F00100D9
:101F500005402448056604F0004038B104F07000E4
:101F600030280AD004F07000702806D004F0004039
:101F700040B905F03000302804D14FF48050FEF70E
:101F8000A3F903E04FF40020FEF79EF925F4FE6567
:101F900006F4FE6005431E4804401D49A13106EACF
:101FA0000100044306F0080044EAC0040D48056639
:101FB00004671020FEF788F925F4005506F4005058
:101FC000054324F4005406F400500443402005491E
:101FD000886504F000401DE088E10F400400FA0528
:101FE0000CED00E000E00F40000100800000FF70F9
:101FF000000005100024F4002C92000040787D01C0
:1020000000FC0FE098920000F0930000FF0300EF47
:102010008FFFFF7F18B108460467056602E0B548E8
:1020200005660467B4480540C14306EA010005435C
:1020300024F0FC5406F0FC50044306F0804040B10C
:1020400045F4800524F48004AC4906EA0100044309
:1020500001E024F0804406F4006080B94FF40047AA
:1020600006E0A448006D00F0400000B102E07F1ED1
:10207000002FF6D100BF25F4006524F400649D48CC
:10208000056604671020FEF71FF9BDE8F08170B502
:102090009848036E016F01F0004010B101F070002C
:1020A00001E003F03000202811D003DC38B1102803
:1020B00015D10AE030280CD0702810D10CE09048DF
:1020C000C3F3841650F826200BE08E4A09E08E4AAE
:1020D00007E047F2305204E04FF4004201E00020F4
:1020E00070BD00BF01F0004010B101F4006028B1E4
:1020F00001F00040E0B903F40060C8B98348056806
:102100007C48D0F8644104F01F00401CC4F304264E
:10211000761C10FB06F04000B2FBF0F2C5F309009C
:102120005043C5F38926564300EB962243F48003BF
:1021300003F4800018B301F00040D8B101F08040F2
:1021400090B101F0004010B101F4006028B101F03D
:10215000004048B903F4006030B95600C1F386501E
:10216000401CB6FBF0F20AE0C1F3C550401CB2FBC4
:10217000F0F204E0C3F3C350401CB2FBF0F210468F
:10218000AEE762491C39086070472DE9F041074607
:102190000D46584800685E4908405E49884208D1AB
:1021A00025F0FC51781E41EAC05058491C3908609E
:1021B0002FE07C1E05F0700030B1102813D03028BD
:1021C00006D070280ED108E044F44014524E0CE0C2
:1021D00044F4001447F2305607E044F480044FF40E
:1021E000004602E000BF474E00BF00BF05F00200FE
:1021F00008B144F0004405F0804008B144F0804448
:1022000042481C3804603046FFF7DCFA3949C1F80F
:10221000C800BDE8F0813749096E21F4F01101438F
:10222000344A116670473348006E00F4801008B9D4
:10223000002070472F48006E00F4F010F9E7334992
:102240006039096821F4706101432A4AC2F800111B
:102250002E495039096821F470610143C2F8101108
:1022600070472A486038006800F470607047214960
:10227000C96E00F00F0301229A4011431D4AD16636
:1022800070471C49C96E00F00F0301229A40914328
:10229000184AD16670471748006F20F480401549EE
:1022A000086770471348006F40F480401149086781
:1022B00070471049886370470E48006E70470D499B
:1022C000096E01430B4A116670470A48406E704719
:1022D0000849496E8143074A516670474A1ED2B287
:1022E00002430A4B183B1A607047084928390860B6
:1022F0007047000000E00F40FEFF3FF80000404044
:102300002C9200000024F40000093D0060E10F4021
:102310000000FF700000051040787D014FF0E020C4
:10232000006940F005004FF0E021086170474FF070
:10233000E020006920F001004FF0E02108617047C3
:1023400010B5044621460F20FEF7E6FD4FF0E020D1
:10235000006940F002004FF0E021086110BD10B5A7
:102360004FF0E020006920F002004FF0E02108610A
:102370000F20FEF7EBFD10BD4FF0E020006940F0AC
:1023800002004FF0E021086170474FF0E020006943
:1023900020F002004FF0E02108617047411E4FF02D
:1023A000E022516170474FF0E0204069401C7047C7
:1023B0004FF0E0208069704730B50246C54B0824D5
:1023C000C5480068C54D2840C54DA84201D1C54B40
:1023D00000BF002108E053F83100904203D103EB25
:1023E000C100406830BD491CA142F4D30020F9E788
:1023F000C26A22F086020A43C26270470146C86A76
:1024000000F08600704741EA02034363704710B54D
:10241000436B03F007040C6003F03804146010BD34
:10242000C16A41F01001C162016B40F201321143F7
:102430000163704700BF816901F008010029FAD1EA
:10244000C16A21F01001C162016B40F20132914377
:1024500001637047F0B504460E4615461F462046F8
:10246000FFF7E8FFB6EB051F05D2206B40F0200018
:1024700020636D0803E0206B20F020002063F00053
:10248000B0FBF5F0401C43089809606203F03F0080
:10249000A062E7620020A0612046FFF7C1FFF0BD07
:1024A000F0B5446A856A8E00402707FB0457B6FBE7
:1024B000F7F61660066B06F0200616B11668760071
:1024C0001660C66A06F0EE061E60F0BDC16A41F0F5
:1024D0001001C1627047C16A21F01001C1627047EA
:1024E00021B1026B42F00602026303E0026B42F08C
:1024F000020202637047016B21F00601016370471D
:10250000C16A21F0E60141F06E01C162026B42F046
:10251000080202637047016B21F0080101637047F4
:10252000026B01F440631A4302637047026B01F4CB
:1025300040639A43026370470146086B00F44060B1
:1025400070470146886940F2071210407047026BDD
:1025500022F440420A43026370470146086B00F4CC
:1025600040407047026B22F010020A43026370473A
:102570000146086B00F0100070470146886901228F
:1025800022EA1010704701468869012222EA5010A1
:1025900070470146886900F0100008B90868704764
:1025A0004FF0FF30FBE7014600BF886900F01000E4
:1025B0000028FAD1086870470246906900F02000B0
:1025C00010B91160012070470020FCE700BF82694C
:1025D00002F02002002AFAD10160704719B1C26AE4
:1025E00042F0010202E0C26A22F00102C2627047B8
:1025F00001468869C0F3C000704770B504460D46B7
:102600002046FFF7D9FE064629463046FEF784FCF1
:102610003046FEF7DDFC70BD70B504462046FFF77E
:10262000CBFE05462846FEF70FFD2846FEF78EFC3A
:1026300070BD826B0A4382637047826B8A438263F8
:102640007047024609B1106C7047D06BFCE74164DB
:102650007047826C0A4382647047826C8A4382644A
:1026600070470146486800F00F0070470021416044
:102670007047C0F8C81F70470146D1F8C80F7047AF
:10268000D0F8A41041F40041C0F8A4107047D0F86D
:10269000A41021F40041C0F8A4107047C0F8A410A1
:1026A000C0F8A82070470A4600BF836903F088037A
:1026B000802BFAD1C16A21F0040343F08203C36284
:1026C000026000BF836903F08803802BFAD1C162E6
:1026D00070470000F893000000E00F400000FF701A
:1026E00000000A103894000000F0DEF900F0EEF966
:1026F0004FF47A7000F020FA00F05AFA00F0BDFBB7
:1027000001F026F900F064FD00F091FD00F0CCFE30
:1027100001F02EF800BF03F02EFC0028FBD104F0DE
:102720006BFC00BFFEE7000070B504460D46164680
:10273000D34951F82400FFF7B6F800B970BDD1486D
:1027400050F82400D0490860CD4951F82400FFF723
:1027500041F960232A463146CB480068FFF77AFEEC
:10276000C9480068FFF75CFE00BFE7E770B50546A3
:102770000E4600240DE0285D0A2804D10D21C24830
:102780000068FFF723FF295DBF480068FFF71EFFC1
:10279000641CB442EFD3204670BD2DE9F0410646DB
:1027A0000F4600257F1E2CE0B7480068FFF7FBFEB0
:1027B00044B2082C06D125B10321B4A0FFF7D6FFFF
:1027C0006D1E1EE00A2C06D1B148007818B1002019
:1027D000AF49087015E00D2C03D00A2C01D01B2C3A
:1027E00005D10D2C02D10120A94908700AE0BD4293
:1027F00006D274556D1CE1B2A3480068FFF7E6FEEF
:1028000000BFD1E700BF002070550221A1A0FFF753
:10281000ADFF2846BDE8F08110B59B480068FFF782
:10282000C2FEC0B210BD2DE9F34F85B0064612E1DD
:10283000002400E0641C305D252802D0305D0028B3
:10284000F8D121463046FFF791FF264430782528FD
:10285000EDD1761C00254FF0200B00BF16F8011BB0
:10286000382932D014DC33292AD008DC25296FD04E
:10287000302922D0312921D032296AD11FE03429D0
:102880001FD035291ED036291DD03729F5D11BE0A0
:10289000692935D008DC392918D0582972D0632924
:1028A00022D06429E9D12AE070296CD073293CD068
:1028B000752958D07829E0D163E000BF00BF00BF80
:1028C00000BF00BF00BF00BF00BF00BF16F8010C73
:1028D000302801D105B9834605EB8500450016F87F
:1028E000010C30380544B9E7069800680490069852
:1028F000001D0690012104A8FFF738FFAAE000BFE1
:102900000698006804900698001D06904FF0000895
:102910000498002805DA0498404204904FF0010919
:1029200001E04FF000090A2739E0069850F804AB9F
:102930000690002400E0641C1AF804000028FAD174
:1029400021465046FFF712FFA5420BD92D1B05E08B
:1029500076E07AE0012150A0FFF708FF281EA5F1DC
:102960000105F7D176E00698006804900698001DEE
:1029700006904FF000080A274FF000090FE001E031
:1029800001E000BF00BF0698006804900698001D93
:1029900006904FF0000810274FF0000900BF0124F7
:1029A00001E07C436D1E04FB07F00499884205D8C2
:1029B00004FB07F0B0FBF7F0A042F2D0B9F1000F32
:1029C00000D06D1EB9F1000F0AD0BBF1300F07D156
:1029D0002D22404608F101080DF800204FF00009B3
:1029E000012D0BD9102D09D26D1E05E0404608F1CE
:1029F00001080DF800B06D1E002DF7D1B9F1000FE0
:102A000005D02D22404608F101080DF8002010E005
:102A10000498B0FBF4F0B0FBF7F107FB11001F497D
:102A200009680A5C404608F101080DF80020B4FB73
:102A3000F7F4002CECD141466846FFF797FE09E019
:102A4000701E0121FFF792FE04E0052114A0FFF79C
:102A50008DFE00BF00BF307800287FF4E9AE07B0DC
:102A6000BDE8F08F0FB408B503A800900099029854
:102A7000FFF7D9FE0020009001B05DF814FB0000C4
:102A8000889400007C9400001800002008200800B2
:102A90001C0000200D0A00002000000078940000B7
:102AA0004552524F5200000010B5FDF728FCFDF7CB
:102AB0000FFC0248FFF736FA10BD0000400500C1C8
:102AC00037480068401C36490860704710B5FFF76A
:102AD000DEFA3449B0FBF1F42046FFF75FFC3248E0
:102AE000FFF72EFCFFF748FCFFF718FC10BD2C4841
:102AF0000068704700B50146FFF7F9FF024600BFC6
:102B0000FFF7F5FF801A8842FAD300BD00B50346EF
:102B10004FF47A7103FB01F0FFF7ECFF00BD204892
:102B200000684FF47A71B0FBF1F0704710B50446BD
:102B30002046FFF7EBFF10BD10B504462046FFF717
:102B4000F5FF10BD00B503461846FFF7D3FF00BDE3
:102B500000B503461846FFF7CDFF00BD00B501469E
:102B600091ED010A81ED000AFFF7C1FF00EE100AA6
:102B7000B8EE400ADFED0D0A80EE201A81ED011A51
:102B800091ED010AD1ED000A30EE600A81ED020AF2
:102B900091ED020ABCEEC00A10EE100A888100BD59
:102BA0002000002040420F00C12A000000007A44AB
:102BB00010B50848FEF70EFF02210748FDF755FE45
:102BC00004210548FDF751FE08210348FDF74DFE9D
:102BD00010BD0000050800F00050024010B5F94893
:102BE000FEF7F8FE20214FF04020FDF73EFE2022A8
:102BF00011464FF04020FDF7BBFD10214FF0402063
:102C0000FDF733FE102211464FF04020FDF7B0FDD6
:102C100010BD10B5102211464FF04020FDF7A8FD61
:102C2000202211464FF04020FDF7A2FD0022102186
:102C30004FF04020FDF79CFD002220214FF0402066
:102C4000FDF796FD10BD10B5002210214FF0402079
:102C5000FDF78EFD202211464FF04020FDF788FD44
:102C6000102211464FF04020FDF782FD10BD70B5D7
:102C7000054600241FE0802020412840002806DD72
:102C8000102211464FF04020FDF772FD05E00022B2
:102C900010214FF04020FDF76BFD202211464FF030
:102CA0004020FDF765FD002220214FF04020FDF778
:102CB0005FFD601CC4B2082CDDDB202211464FF002
:102CC0004020FDF755FD002220214FF04020FDF768
:102CD0004FFD70BD10B50446FFF79BFF7820FFF74E
:102CE000C6FF0020FFF7C3FF2046FFF7C0FFFFF736
:102CF000AAFF10BD10B50446FFF78BFF7820FFF741
:102D0000B6FF4020FFF7B3FF2046FFF7B0FFFFF705
:102D10009AFF10BD70B505460C4645F0B000FFF7B0
:102D2000D9FF102141EA1410FFF7D4FF04F00F007F
:102D3000FFF7D0FF70BD70B500240EE000212046E3
:102D4000FFF7E8FF002504E00020FFF7D3FF681C31
:102D5000C5B2802DF8DB601CC4B2082CEEDB70BD60
:102D60002DE9F04106460F469046002414E07A1EF5
:102D70001207110E721E04EB4202D0B2FFF7CAFF17
:102D8000002506E005EB041118F80100FFF7B2FF7B
:102D90006D1C102DF6DB641C022CE8DB0020BDE866
:102DA000F0812DE9F04106460F46154698467A1EF9
:102DB000D206110E721E5206100EFFF7ABFF002452
:102DC00017E0B8F1000F0AD0A5F120017E4A02EB0E
:102DD0000111095DC943C8B2FFF78CFF07E0A5F1F7
:102DE0002001794A02EB0111085DFFF783FF601CA7
:102DF000C4B2082CE5DB7A1ED206110E721E012326
:102E000003EB4202D0B2FFF785FF00241BE0B8F1CC
:102E1000000F0CD0A5F120016B4A02EB011204F166
:102E20000801515CC943C8B2FFF764FF09E0A5F18E
:102E30002001654A02EB011204F10801505CFFF722
:102E400059FF601CC4B2082CE1DBBDE8F0812DE91C
:102E5000F04107460E4615469846002408E02A5DD4
:102E60003019C1B243463846FFF79BFF601CC4B21D
:102E7000285D0028F3D1BDE8F08110B5FFF7AEFE64
:102E80006420FFF759FEAE20FFF724FF0020FFF774
:102E900021FF1020FFF71EFF4020FFF71BFFB0208F
:102EA000FFF718FF8120FFF715FFFF20FFF712FF44
:102EB000A120FFF70FFFA620FFF70CFFA820FFF7C8
:102EC00009FF3F20FFF706FFC820FFF703FFD320CD
:102ED000FFF700FF0020FFF7FDFED520FFF7FAFE09
:102EE0008020FFF7F7FED820FFF7F4FE0520FFF75C
:102EF000F1FED920FFF7EEFEF120FFF7EBFEDA201E
:102F0000FFF7E8FE1220FFF7E5FEDB20FFF7E2FE09
:102F10003020FFF7DFFE2020FFF7DCFE0220FFF766
:102F2000D9FE8D20FFF7D6FE1420FFF7D3FEAF2089
:102F3000FFF7D0FEFFF7FFFE10BD0FB470B58AB0EB
:102F400004460D46202102A804F02CFA002611A800
:102F5000019002A8019A109904F0F8FD064600209D
:102F60000190002302AA29462046FFF770FF304651
:102F70000AB070BC5DF814FB70B506460D46072E0E
:102F800002DD4FF0FF3070BD642D02DD6FF00200F6
:102F9000F9E70D213046FFF7BDFE00240AE0AC4200
:102FA00003DD8120FFF7A6FE02E0FF20FFF7A2FE6F
:102FB000601CC4B2642CF2DBFF20FFF79BFE0020F4
:102FC000E1E70000000800F0949400002DE9F041D2
:102FD00006460F469046002414E07A1E1207110E92
:102FE000721E04EB4202D0B2FFF794FE002506E009
:102FF00005EB041118F80100FFF77CFE6D1C102D85
:10300000F6DB641C022CE8DB0020BDE8F08110B583
:103010000246012000E050430B1EA1F10101FAD14C
:1030200010BD2DE9F0478146884615461E46002D05
:1030300007DB00232B2241464846FFF7B2FE2F460E
:1030400006E000232D2241464846FFF7AAFE6F42C4
:10305000002418E0301B411E0A20FFF7D8FFB7FB01
:10306000F0F00A21B0FBF1F201FB120000F1300A8E
:1030700008EB0400401CC1B2002352464846FFF74B
:1030800090FE601CC4B2B442E4DBBDE8F0870000EF
:1030900010B54A48FEF79EFC49484A490860081D99
:1030A000006840F00100091D08600020091F086049
:1030B00001214548FDF7CAFB10214348FDF7C6FB37
:1030C0000A23012211214048FDF7FDF910BD10B57A
:1030D00010213D48FDF73CFBC0F300103B498870D0
:1030E00001213948FDF734FB00F001013748C17177
:1030F00000205FE000EB8001344A515C21B10129DE
:1031000013D0022954D122E000EB80012F4A114450
:10311000897849B9012100EB80022C4B9954002198
:1031200000EB80021A44517042E000EB8001274A14
:103130001144897829B9022100EB8002234B99546C
:1031400004E0002100EB8002204B995430E000EBBA
:1031500080011E4A11448978012911D1002100EB18
:1031600080021A4B995400EB80011A4611444978A9
:1031700046291CDA012100EB80021A44D17016E0C6
:1031800000EB8001114A11444978491C00EB800290
:103190000E4B1A44517000EB80011A4611444978D5
:1031A000462904DD012100EB80021A44117100BFA1
:1031B00000BF401C02289DDB10BD0000050800F088
:1031C0004B434F4C20550240005002406C060020FB
:1031D00010B57548FEF7FEFB7348801CFEF7FAFB3E
:1031E00080214FF04020FDF740FB02216F48FDF7A2
:1031F0003CFB002280214FF04020FDF7B9FA00226D
:1032000002216A48FDF7B4FA01216948FDF72DFB58
:1032100002216748FDF729FB002201216448FDF7E0
:10322000A7FA002202216248FDF7A2FA10BD10B5EC
:103230000020FEF7F0FF5F48FEF7CCFB5A48FEF790
:10324000C9FB10215C48FDF788FB20215A48FDF797
:1032500084FB5A48FDF74AFC5948FDF747FC022217
:1032600080215848FDF7DEFF41F63F728021554826
:10327000FDF7EDFF012204215248FEF744F8012238
:1032800008215048FEF73FF880214E48FDF7F6FF31
:1032900010BD70B504460D46002C0BDB00228021CA
:1032A0004FF04020FDF764FA022211463F48FDF737
:1032B0005FFA0CE0604204B2802211464FF04020D9
:1032C000FDF756FA002202213848FDF751FA002D89
:1032D0000ADB002201213648FDF74AFA0222114694
:1032E0003348FDF745FA0BE0684205B2012211466A
:1032F0002F48FDF73DFA002202212D48FDF738FA4C
:1033000080213048FDF7AEFF60436421B0FBF1F649
:10331000324682212B48FDF7BBFF80212948FDF76B
:10332000A1FF68436421B0FBF1F6324683212548B2
:10333000FDF7AEFF70BD244B02681B689A4202DDA8
:10334000214A12680260214B02681B689A4202DA25
:103350001E4A126802601C4B0A681B689A4202DD12
:10336000194A12680A60194B0A681B689A4202DA05
:10337000164A12680A60704710B5002280214FF08B
:103380004020FDF7F5F9002202210848FDF7F0F989
:10339000002201210648FDF7EBF900220221044832
:1033A000FDF7E6F910BD0000010800F000500240F2
:1033B00000700040004000F0005000400410010088
:1033C0000414010000800240240000202800002096
:1033D00010B54F48FEF7FEFA4E48FEF7FBFA4E488E
:1033E0004E490860081D006840F08000091D086013
:1033F0000020091F0860C0214948FDF7BDFA49486F
:10340000FDF774FB4848FDF771FB082302224021B9
:103410004348FDF758F80823022280214048FDF771
:1034200052F84FF6FF7208214048FEF735F94FF485
:1034300060213E48FEF7B5F93C48FEF7A8F93B4845
:10344000FEF720F910BD10B53148401CFEF7C2FA56
:103450003048401EFEF7BEFA60213548FDF78CFA71
:103460003448FDF743FB3448FDF740FB08230222B4
:1034700020212F48FDF727F80823022240212C485D
:10348000FDF721F84FF6FF7208212C48FEF704F9EA
:103490004FF460212948FEF784F92848FEF777F9B0
:1034A0002648FEF7EFF810BD10B5FFF791FFFFF7C4
:1034B000CAFF10BD2DE9F04106460F461B48FEF736
:1034C000F2F805461948FEF7F3F8002805DA25B1A9
:1034D000A5F57F45FF3D356000E0356000211348CC
:1034E000FEF7E4F81548FEF7DEF804461348FEF749
:1034F000DFF8002805DA24B1A4F57F44FF3C3C60E6
:1035000000E03C6000210D48FEF7D0F8BDE8F081F6
:10351000004400F0030800F04B434F4C207500407E
:103520000070004006180300061C030000C00240A3
:1035300000600040061402000618020000D002409D
:10354000F8B505460E4614461F46012C08DD3B46DD
:1035500032462946E748009400F05CFCC0B2F8BD52
:10356000012C07D13B4632462946E24800F05EFB7B
:10357000C0B2F4E70020F2E708B5002000906B46E7
:10358000012275216820FFF7DBFF9DF8000008BDD0
:1035900070B580236B226821D64800F0F7F9FEF75A
:1035A00076FD40F6B831B0FBF1F0642100FB01F587
:1035B0002846FCF789FE00236B226821CD4800F0E5
:1035C000E5F918231B226821CA4800F0DFF900231F
:1035D0001C226821C74800F0D9F913231922682159
:1035E000C44800F0D3F906231A226821C14800F02C
:1035F000CDF9002338226821BE4800F0C7F9002326
:103600006A226821BB4800F0C1F900232322682107
:10361000B84800F0BBF9802337226821B54800F094
:10362000B5F9FFF7A9FF04462146B3A0FFF71AFA40
:10363000682C1BD101236B226821AE4800F0A6F94B
:1036400000236C226821AB4800F0A0F91323192253
:103650006821A84800F09AF906231A226821A54893
:1036600000F094F9A9A0FFF7FDF902E0AEA0FFF782
:10367000F9F970BDF8B505460E4614461F46012CF3
:1036800008DD3B46324629469A48009400F045FA48
:10369000C0B2F8BD012C07D13B7832462946954887
:1036A00000F074F9C0B2F4E70020F2E770B5044608
:1036B0000D462B46224668218E4800F067F9C0B2BD
:1036C00070BD38B50446002000906B462246682144
:1036D000884800F0ABFA9DF8000038BD70B504468C
:1036E0000025BC2C01DB012510E0622C01DB02254A
:1036F0000CE02A2C01DB032508E0142C01DB042557
:1037000004E00A2C01DB052500E0062529461A20E5
:10371000FFF7CCFF70BD70B50446B4F57A7F01DDCC
:103720004FF47A74042C00DA04244FF47A7090FB7E
:10373000F4F0401EC5B229461920FFF7B7FF054631
:10374000264604EBD671C1F34F00FFF7C7FF70BDEB
:1037500010B50446E006010E1C20FFF7A7FF10BDC0
:1037600010B50446E006010E1B20FFF79FFF10BDB9
:1037700010B580216B20FFF799FF6420FFF7DCF97B
:1037800000216B20FFF792FF0320FFF7E9FF0020E5
:10379000FFF7DEFF3220FFF7BEFF00213820FFF7E2
:1037A00085FF00216A20FFF781FF00212320FFF71A
:1037B0007DFF80213720FFF779FF7520FFF781FF1C
:1037C0000446682C0BD101216B20FFF76FFF00210D
:1037D0006C20FFF76BFF3220FFF79DFF01E0012017
:1037E00010BD0020FCE730B52DED068B81B06B4697
:1037F000022241216820FFF7A3FE9DF800409DF8BA
:10380000010040EA042004B24FF4AA7094FBF0F5E2
:10381000284603F0F8FE41EC190B53EC192B9FEDF1
:10382000490B51EC100B03F0D5FD41EC1A0B03F0E2
:103830002DFF08EE100A9FED450A28EE000ABDEEA6
:10384000C00A10EE100A04B2A0B201B0BDEC068BA3
:1038500030BD2DE9FC4104460D4616466B46062256
:1038600043216820FFF76CFE0746BFB99DF80100B1
:103870009DF8001040EA012000B220809DF803006E
:103880009DF8021040EA012000B228809DF8050052
:103890009DF8041040EA012000B230803846BDE8AF
:1038A000FC812DE9FC4104460D4616466B46062276
:1038B0003B216820FFF744FE0746BFB99DF8010091
:1038C0009DF8001040EA012000B220809DF803001E
:1038D0009DF8021040EA012000B228809DF8050002
:1038E0009DF8041040EA012000B230803846BDE85F
:1038F000FC81000000000240616464725F726561D7
:10390000643A20202030782578200A000A6D7075EE
:10391000363035302D2D2D2D2D2D696E69745F6655
:10392000696E6973680A00000A6D7075363035304B
:103930002D2D2D2D2D2D616464725F6572726F7255
:103940000A000000A4703D0AD74342400000C8426C
:1039500010B5FE48FEF73EF8FD48FEF73BF8FD487F
:10396000FDF7C4F80821FC48FCF79DFFFB48FDF774
:10397000BDF80421F848FCF7A5FFFEF788FB0446D4
:1039800001222146F648FDF712F910BD2DE9F04756
:103990000746884615461E464FF00009002400BF22
:1039A0003846FDF7DBF90028FAD1002241463846B7
:1039B000FDF7CDF9A94649463846FDF7F2F903214E
:1039C0003846FDF7DDF900BF3846FDF7C7F9002896
:1039D000FAD13846FDF7D6F9044664B104213846D9
:1039E000FDF7CEF900BF3846FDF7B8F90028FAD147
:1039F0002046BDE8F087B14649463846FDF7D1F983
:103A000005213846FDF7BCF900BF3846FDF7A6F999
:103A10000028FAD13846FDF7B5F904460CB1204626
:103A2000E7E70020E5E72DE9F04780460E46174618
:103A30001D464FF00009002400BF4046FDF78EF9F7
:103A40000028FAD1B146002249464046FDF77FF9E9
:103A5000B94649464046FDF7A4F903214046FDF723
:103A60008FF900BF4046FDF779F90028FAD14046AA
:103A7000FDF788F9044664B104214046FDF780F95A
:103A800000BF4046FDF76AF90028FAD12046BDE89C
:103A9000F0874FEA252949464046FDF782F9012182
:103AA0004046FDF76DF900BF4046FDF757F9002885
:103AB000FAD14046FDF766F904465CB10421404660
:103AC000FDF75EF900BF4046FDF748F90028FAD13E
:103AD0002046DCE705F0FF0949464046FDF761F95D
:103AE00005214046FDF74CF900BF4046FDF736F989
:103AF0000028FAD14046FDF745F904465CB104219F
:103B00004046FDF73DF900BF4046FDF727F9002884
:103B1000FAD12046BBE70020B9E72DE9F05F8246E5
:103B20000F4690461D46DDF828904FF0000B00260A
:103B3000002400BFB9F1020FFCD300BF5046FDF7CF
:103B40000DF90028FAD1BB46002259465046FDF730
:103B5000FEF8C34659465046FDF723F90321504667
:103B6000FDF70EF900BF5046FDF7F8F80028FAD12E
:103B70005046FDF707F9044664B104215046FDF7AD
:103B8000FFF800BF5046FDF7E9F80028FAD12046BB
:103B9000BDE8F09F95F800B059465046FDF701F991
:103BA000002622E001215046FDF7EAF800BF50460A
:103BB000FDF7D4F80028FAD15046FDF7E3F80446A3
:103BC0005CB104215046FDF7DBF800BF5046FDF71D
:103BD000C5F80028FAD12046DAE7701C15F800B0C5
:103BE00059465046FDF7DDF8761CA9F10100B042B8
:103BF000D8D805215046FDF7C3F800BF5046FDF761
:103C0000ADF80028FAD15046FDF7BCF804465CB187
:103C100004215046FDF7B4F800BF5046FDF79EF86A
:103C20000028FAD12046B3E70020B1E72DE9F0479C
:103C300080460D4616461F464FF00009CA4600242E
:103C400000BF4046FDF78AF80028FAD1A9460022B5
:103C500049464046FDF77BF8B14649464046FDF7E8
:103C6000A0F803214046FDF78BF800BF4046FDF762
:103C700075F80028FAD14046FDF784F8044664B18F
:103C800004214046FDF77CF800BF4046FDF766F88A
:103C90000028FAD12046BDE8F08701222946404697
:103CA000FDF755F807214046FDF76AF800BF40468A
:103CB000FDF754F80028FAD14046FDF763F80446B2
:103CC0005CB104214046FDF75BF800BF4046FDF7BC
:103CD00045F80028FAD12046DDE74046FDF763F8B5
:103CE00000F0FF0A87F800A00020D4E72DE9FC4788
:103CF00080460D4616461F464FF0000900200090F2
:103D000001908246002400BF4046FDF727F80028B6
:103D1000FAD1A946002249464046FDF718F8B146B7
:103D200049464046FDF73DF803214046FDF728F897
:103D300000BF4046FDF712F80028FAD14046FDF7D3
:103D400021F80446CCB1042140460BE0002000F0ED
:103D5000010800F0030C01000050004003080100BE
:103D600000000240FDF70CF800BF4046FCF7F6FFEC
:103D70000028FAD12046BDE8FC87012229464046AA
:103D8000FCF7E5FF0B214046FCF7FAFF00BF404679
:103D9000FCF7E4FF0028FAD14046FCF7F3FF0446A5
:103DA0005CB104214046FCF7EBFF00BF4046FCF746
:103DB000D5FF0028FAD12046DDE74046FCF7F3FFA7
:103DC000009005214046FCF7DBFF00BF4046FCF7B2
:103DD000C5FF0028FAD14046FCF7D4FF04465CB189
:103DE00004214046FCF7CCFF00BF4046FCF7B6FF7D
:103DF0000028FAD12046BEE74046FCF7D4FF0190E8
:103E0000DDE9001040EA01201FFA80FAA7F800A0BF
:103E10000020B0E72DE9F84F8346894692461D46BB
:103E20000A9E0020009000278046002400BF022E3A
:103E3000FDD300BF5846FCF791FF0028FAD1CDF81A
:103E40000090002258460099FCF781FFCDF800A0B1
:103E500058460099FCF7A5FF03215846FCF790FF50
:103E600000BF5846FCF77AFF0028FAD15846FCF705
:103E700089FF044664B104215846FCF781FF00BF66
:103E80005846FCF76BFF0028FAD12046BDE8F88FB2
:103E9000012249465846FCF75AFF0B215846FCF7C9
:103EA0006FFF00BF5846FCF759FF0028FAD158466B
:103EB000FCF768FF04465CB104215846FCF760FF3C
:103EC00000BF5846FCF74AFF0028FAD12046DDE73C
:103ED0005846FCF768FF07462F704FF0000822E0B5
:103EE00009215846FCF74CFF00BF5846FCF736FF47
:103EF0000028FAD15846FCF745FF04465CB104217E
:103F00005846FCF73DFF00BF5846FCF727FF002846
:103F1000FAD12046BAE75846FCF745FF074608F1B4
:103F200001002F548046B01E4045D9D8052158467F
:103F3000FCF726FF00BF5846FCF710FF0028FAD117
:103F40005846FCF71FFF04465CB104215846FCF7B5
:103F500017FF00BF5846FCF701FF0028FAD12046A2
:103F600094E75846FCF71FFF0746701E2F540020A9
:103F70008CE7000038B50446F74890F82400C0B13B
:103F800014B10220009001E000200090F24A126873
:103F9000D17BF14A526810786B460122FFF76AFB29
:103FA00010B14FF0FF3038BD9DF80010EA48417461
:103FB00023E0E948807A10B94FF0FF30F3E724B1ED
:103FC000E548407C08B10020EDE714B101200090E5
:103FD00001E000200090E04A1268D17BDE4A52687E
:103FE00010786B460122FFF745FB10B14FF0FF3010
:103FF000D9E79DF80010D84841740020D3E738B5C0
:1040000000241FE0D4480068C07AA04204D0D248FF
:104010000068407DA04200D112E0CF49496808788D
:104020006B4601222146FFF78BFA10B14FF0FF30AB
:1040300038BD9DF800202146C8A0FEF713FD00BF43
:10404000601CC4B2C44840680079A042DADC002099
:10405000EEE770B504460D46BF480068C07AA0423E
:1040600004D0BD480068407DA04202D14FF0FF302F
:1040700070BDB94840680079A04202DC4FF0FF30C3
:10408000F6E7B549496808782B4601222146FFF733
:1040900057FAEDE738B50446AF4890F82300A04240
:1040A00001D1002038BD14B13020009001E0002083
:1040B0000090A948807C20B19DF8000040F00200EB
:1040C0000090A54890F8220020B19DF8000040F033
:1040D00080000090A04A1268117D9F4A52681078B3
:1040E0006B460122FFF7C6FA10B14FF0FF30D9E757
:1040F000994880F823400020D4E738B5044604F0FE
:10410000700010B10120009005E014B10020009073
:1041100001E040200090904A1268917C8E4A5268DB
:1041200010786B460122FFF7A5FA20B100218A48DA
:104130008172481E38BD9DF8000020F0400186487D
:1041400001730020009004F0400020B99DF80000A9
:1041500040F00400009004F0200020B99DF8000019
:1041600040F00200009004F0100020B99DF800001B
:1041700040F00100009004F0080020B99DF8000014
:1041800040F038000090744A1268D17C724A52683C
:1041900010786B460122FFF76DFA20B100216E48BE
:1041A0008172481EC6E724B1082C02D00020FFF718
:1041B00071FF69488472002101753220FEF7BCFC52
:1041C0000020B7E738B504466348807CA04201D19F
:1041D000002038BD002C46D05F4A126811795E4A33
:1041E000526810786B460122FFF7AAF910B14FF020
:1041F000FF30EEE79DF8000020F020000090564AC6
:1042000012681179544A526810786B460122FFF700
:1042100031FA10B14FF0FF30DBE70320FEF78CFCE2
:10422000022000904C4890F8220020B19DF8000038
:1042300040F080000090484890F8230020B19DF89D
:10424000000040F030000090434A1268117D424A5D
:10425000526810786B460122FFF70CFA002851D003
:104260004FF0FF30B5E73C4A126811793A4A52687C
:1042700010786B460122FFF763F910B14FF0FF3061
:10428000A7E73548807A00F0010028B19DF80000CA
:1042900040F02000009004E09DF8000020F0200095
:1042A00000902D4A126811792B4A526810786B469B
:1042B0000122FFF7DFF910B14FF0FF3089E703204B
:1042C000FEF73AFC244890F8220010B180200090BC
:1042D00001E000200090204890F8230020B19DF8D4
:1042E000000040F0300000901B4A1268117D1A4A0D
:1042F000526810786B460122FFF7BCF910B14FF0FD
:10430000FF3066E714488474002062E708B512485D
:10431000807A10B94FF0FF3008BD002000900E4A9F
:104320001268D17B0C4A526810786B460122FFF765
:10433000A1F910B14FF0FF30EEE7074A126851794A
:10434000054A526810786B460122FFF793F968B16D
:104350004FF0FF30E0E700002C00002025233578E7
:104360003A20252335780D0A00000000F84A12682B
:104370001179F74A526810786B460122FFF77AF9F3
:1043800010B14FF0FF30C7E7F14890F82400002843
:1043900053D00C200090EE4A12681179EC4A526812
:1043A00010786B460122FFF765F910B14FF0FF302E
:1043B000B2E73220FEF7C0FBC0200090E448807ACC
:1043C00000F0010020B19DF8000040F020000090B6
:1043D000DF4A12681179DE4A526810786B46012272
:1043E000FFF748F910B14FF0FF3095E7D848407C0F
:1043F00010B10220009001E000200090D44A126821
:10440000D17BD34A526810786B460122FFF732F90C
:1044100010B14FF0FF307FE700200090CC4A1268C7
:104420005179CB4A526810786B460122FFF722F986
:10443000002855D04FF0FF306EE704200090C44AAA
:1044400012681179C24A526810786B460122FFF750
:1044500011F910B14FF0FF305EE7BD48807C20B904
:10446000BB48807A00F0010010B94020009001E0C4
:1044700060200090B64A12681179B54A52681078E7
:104480006B460122FFF7F6F810B14FF0FF3043E71B
:104490003220FEF751FBAE48407C10B10120009065
:1044A00001E000200090AA4A1268D17BA84A526815
:1044B00010786B460122FFF7DDF810B14FF0FF30A6
:1044C0002AE7A34A12685179A14A52681078A04B92
:1044D00010330122FFF7CEF810B14FF0FF301BE789
:1044E000002019E770B50446002624F0010498481E
:1044F00090F8240008B1002070BD9548807A10B96A
:104500004FF0FF30F8E79248057C807A20409049D0
:1045100008740846007CA04202D04FF0FF3600E04D
:10452000002614B98A48007D18B10120FFF722FD4A
:1045300002E00020FFF71EFD3CB1FFF7E7FE20B1CF
:10454000834805744FF0FF30D6E73046D4E738B5DE
:1045500004467F48807A10B94FF0FF3038BDBC2C3C
:1045600002DB0120009015E0622C02DB02200090AB
:1045700010E02A2C02DB032000900BE0142C02DB5D
:104580000420009006E00A2C02DB0520009001E0E8
:10459000062000906E48C07A9DF80010884201D134
:1045A0000020DBE76A4A12689178694A52681078FD
:1045B0006B460122FFF75EF810B14FF0FF30CDE7F8
:1045C0009DF800106248C1720020C7E738B5044664
:1045D000282C02DD4FF0FF3038BDDCB90020FFF79A
:1045E00059FD00208DF8000007208DF80100584A81
:1045F0001268917C564A526810786B460222FFF787
:1046000039F810B14FF0FF30E6E70021504801754E
:104610000020E1E70120FFF73DFD20208DF800009C
:10462000012C06D100208DF801000520FFF78FFF37
:1046300017E0052C06DC01208DF801000520FFF7AE
:1046400086FF0EE0142C06DC02208DF801000A2003
:10465000FFF77DFF05E003208DF801001420FFF730
:1046600076FF9DF80100072101EB8010C0B28DF8A4
:104670000100374A1268917C354A526810786B46BF
:104680000222FEF7F7FF10B14FF0FF30A4E7082138
:104690002F48817200210173012101750020FFF76D
:1046A00021FF002098E738B504462948807A10B9E0
:1046B0004FF0FF3038BD264890F8240010B14FF07D
:1046C000FF30F7E72248007D50B134B1282C04DCDC
:1046D000E0B2FFF77BFF0020ECE70020FFF776FF5A
:1046E000042C01DA042404E0B4F57A7F01DD4FF4F0
:1046F0007A744FF47A7090FBF4F0401EC0B20090D0
:10470000134A12685178124A526810786B46012297
:10471000FEF7B0FF10B14FF0FF30CBE79DF800007F
:10472000401C4FF47A7191FBF0F081B20848C181CE
:104730000146C9894810FFF70AFF0020BAE738B5DB
:1047400004460348807A28B94FF0FF3038BD000096
:104750002C000020022C06D0042C07D0082C08D0F6
:10476000102C0CD108E0002000900BE008200090F5
:1047700008E01020009005E01820009002E04FF0C3
:10478000FF30E3E700BFF748407A9DF80010B0EB38
:10479000E10F01D10020D9E7F24A1268D179F14A3C
:1047A000526810786B460122FEF764FF10B14FF09B
:1047B000FF30CBE79DF80000C110EA4841720020AD
:1047C000C4E738B50446E748807A10B94FF0FF30A7
:1047D00038BDFA2C09D0B4F5FA7F09D0B4F57A7F48
:1047E00009D0B4F5FA6F0CD108E0002000900BE07E
:1047F0000820009008E01020009005E018200090AC
:1048000002E04FF0FF30E3E700BFD648007A9DF8A2
:104810000010B0EBE10F01D10020D9E7D14A1268B6
:104820009179D04A526810786B460122FEF722FF38
:1048300010B14FF0FF30CBE79DF80000C010C94920
:1048400008720020C4E71CB580208DF80000C54A1E
:104850001268917CC34A526810786B460122FEF7B9
:1048600009FF10B14FF0FF301CBD6420FEF764F962
:1048700000208DF80000BB4A1268917CB94A52684A
:1048800010786B460122FEF7F5FE10B14FF0FF30B5
:10489000EAE7B44A1268917DB24A526810786B46D2
:1048A0000622FEF74DFE10B14FF0FF30DCE79DF819
:1048B0000500C007400F9DF8031001F0010140EA18
:1048C00041009DF8011001F0010140EA010494B19A
:1048D000012C03D10121A348C17431E0022C03D182
:1048E0000021A048C1742BE021469FA0FEF7BAF832
:1048F0004FF0FF30B8E79B4A1268D178994A526866
:1049000010786B460122FEF71BFE10B14FF0FF300E
:10491000AAE79DF8000000F00F042CB99C48FEF7B0
:10492000A1F84FF0FF309FE7042C06D199A0FEF7C5
:1049300099F801218B48C17402E000218948C174B3
:10494000FF2188488172FF2086490872FF2185482F
:104950004172C1724FF6FF71C181FF2101748174F0
:104960000121017380F82210002180F82310417585
:1049700001751630016041608160163880F824109E
:1049800080F82510C1844FF4FA60FFF71AFF10B1C8
:104990004FF0FF3068E70220FFF7D1FE10B14FF073
:1049A000FF3061E72A20FFF7D2FD10B14FF0FF3052
:1049B0005AE73220FFF777FE10B14FF0FF3053E790
:1049C0000020FFF78FFD10B14FF0FF304CE70020C3
:1049D000FFF7F8FB10B14FF0FF3045E70020FFF77D
:1049E0008CFB002040E770477CB504460D465D48CF
:1049F000807A00F0700010B94FF0FF307CBD594A4A
:104A00001268117B574A526810786B460622FEF7EF
:104A100097FD10B14FF0FF30F0E79DF801009DF8D1
:104A2000001040EA012000B220809DF803009DF8AC
:104A3000021040EA012000B260809DF805009DF858
:104A4000041040EA012000B2A08015B12846FFF70B
:104A5000CAFF0020D2E77CB504460D464148807A63
:104A600000F0080010B94FF0FF307CBD3D4A1268DD
:104A7000517B3C4A526810786B460622FEF760FD77
:104A800010B14FF0FF30F0E79DF801009DF80010E5
:104A900040EA012000B220809DF803009DF802103A
:104AA00040EA012000B260809DF805009DF80410E6
:104AB00040EA012000B2A08015B12846FFF793FF1D
:104AC0000020D2E7F8B506460C462648807A10B991
:104AD0004FF0FF30F8BD234A1268917B214A52689B
:104AE00010786B460222FEF72BFD10B14FF0FF301D
:104AF000F0E79DF801009DF8001040EA012005B2A2
:104B000014B12046FFF76FFF16484068B0F908005F
:104B100000EE100AF8EEC00A00EE105AB8EEC00A15
:104B200070EE600A0F484068C08800EE100AB8EEC8
:104B3000400A80EE801A9FED1F0A31EE000ADFED79
:104B40001E0A20EE200ABDEEC00A86ED000A0020F3
:104B5000C0E710B588B004461CB94FF0FF3008B06C
:104B600010BD2BE02C000020556E737570706F72B5
:104B700074656420736F6674776172652070726FFC
:104B800064756374207265762025642E0A00000027
:104B9000D4A7000048616C662073656E7369746900
:104BA00076697479207061727420666F756E642EF8
:104BB0000A00000000000C4200008047206830B965
:104BC000606820B9A06810B9002008B010BDF9498C
:104BD0004968087806AB03221146FEF7B1FC10B114
:104BE0004FF0FF30F1E79DF81800082101EB20108D
:104BF00000F00F00ADF800009DF8190001EB201047
:104C000000F00F00ADF802009DF81A0001EB201033
:104C100000F00F00ADF8040020684100BDF900006D
:104C2000403091FBF0F000B2ADF810006068410038
:104C3000BDF90200403091FBF0F000B2ADF8120077
:104C4000A0684100BDF90400403091FBF0F000B2D3
:104C5000ADF81400D7494968087806AB062211461A
:104C6000FEF76EFC10B14FF0FF30AEE79DF8190073
:104C70009DF8181040EA012000B2ADF808009DF838
:104C80001B009DF81A1040EA012000B2ADF80A009E
:104C90009DF81D009DF81C1040EA012000B2ADF8FF
:104CA0000C00BDF81000BDF80810084400B2ADF8C3
:104CB0001000BDF81200BDF80A10084400B2ADF8AB
:104CC0001200BDF81400BDF80C10084400B2ADF895
:104CD0001400BDF81000000A8DF81800BDF810008F
:104CE000C0B28DF81900BDF81200000A8DF81A0044
:104CF000BDF81200C0B28DF81B00BDF81400000A08
:104D00008DF81C00BDF81400C0B28DF81D00A94933
:104D10004968087806AB06221146FEF7ABFC10B1D5
:104D20004FF0FF3051E700204FE70146A148007ADD
:104D300030B1012807D0022809D003280FD10AE09A
:104D4000FA2008800EE04FF4FA7008800AE04FF471
:104D50007A70088006E04FF4FA60088002E00020D4
:104D6000088000BF00BF0020704701469148407A8C
:104D700030B1012807D0022808D003280CD108E060
:104D8000022008700BE00420087008E0082008707A
:104D900005E01020087002E04FF0FF30704700BFC0
:104DA0008448C07C18B108784006000E08700020C6
:104DB000F4E701467F48C07A082817D2DFE800F000
:104DC0001704070A0D101318BC20088013E0622096
:104DD000088010E02A2008800DE0142008800AE0F6
:104DE0000A20088007E00520088004E000BF00BF1B
:104DF0000020088000BF00BF0020704701466D48BA
:104E000090F8240010B14FF0FF3070476948C08916
:104E100008800020F9E7014600200880401E704706
:104E200001464FF0FF30704701466248007A30B1CA
:104E3000012809D002280CD0032814D10EE09FEDE0
:104E40005E0A81ED000A11E09FED5C0A81ED000A27
:104E50000CE09FED5B0A81ED000A07E09FED590A27
:104E600081ED000A02E04FF0FF30704700BF0020E4
:104E7000FBE701464F48407A30B1012808D00228AC
:104E80000AD0032810D10BE04FF4804008800EE0D8
:104E900041F69C7008800AE04FF48050088006E0DC
:104EA0004FF40060088002E04FF0FF30704700BF11
:104EB0004048C07C10B10888401008800020F5E709
:104EC00001463C48007C0870002070470146394884
:104ED000807A10B10120087001E0002008700020E5
:104EE000704738B504463348807A10B94FF0FF3028
:104EF00038BD304A1268117C2E4A526810786B46D1
:104F00000222FEF71DFB10B14FF0FF30F0E79DF8D5
:104F100001009DF8001040EA012000B2208000202E
:104F2000E6E72DE9FE4F0746884692461D46DDF826
:104F300030B0002600241F4890F8240010B1601EF5
:104F4000BDE8FE8F002028701A48807A10B94FF013
:104F5000FF30F5E71748007C10B94FF0FF30EFE75E
:104F60001448007C00F0400008B1B01CC6B21148E3
:104F7000007C00F0200008B1B01CC6B20D48007CD7
:104F800000F0100008B1B01CC6B20A48007C00F066
:104F9000080008B1B01DC6B2064A1268917A054AE7
:104FA000526810786B460222FEF7CAFA60B14FF0E1
:104FB000FF30C5E72C0000200000034300008342BF
:104FC00033330342333383419DF801009DF80010D1
:104FD00040EA0129B14501DA0020B1E7FA4840680A
:104FE0004088B9EB600F17DDF74A1268517CF64A2A
:104FF000526810786B460122FEF7A2FA10B14FF00A
:10500000FF309DE79DF8000000F0100020B1FFF791
:105010007DF96FF0010093E75046FFF7E4FCEA4AA0
:105020001268D17AE84A526810786B463246FEF729
:1050300087FA10B14FF0FF3082E799FBF6F0401E7F
:105040008BF8000000202870B4422AD0DE48007C93
:1050500000F0080028B3601C1DF800001DF80410C3
:1050600040EA012000B2A8F80000E01C1DF8001082
:10507000A01C1DF8000041EA002000B2A8F80200C0
:10508000601D1DF80010201D1DF8000041EA0020E1
:1050900000B2A8F80400287840F008002870A01D8D
:1050A00084B2B44213D0C848007C00F0400070B114
:1050B000601C1DF800001DF8041040EA012000B239
:1050C0003880287840F040002870A01C84B2B44298
:1050D00013D0BD48007C00F0200070B1601C1DF8AA
:1050E00000001DF8041040EA012000B27880287802
:1050F00040F020002870A01C84B2B44213D0B24803
:10510000007C00F0100070B1601C1DF800001DF85C
:10511000041040EA012000B2B880287840F0100066
:105120002870A01C84B200200AE7F8B504460F4698
:105130001646A54890F8240010B94FF0FF30F8BD8E
:10514000A148807A10B94FF0FF30F8E79E4A126804
:10515000917A9D4A526810786B460222FEF7F0F968
:1051600010B14FF0FF30EAE79DF801009DF8001004
:1051700040EA0125A54203DA00203070401EDEE738
:10518000914840684088B5EB600F17DD8E4A126881
:10519000517C8D4A526810786B460122FEF7D0F997
:1051A00010B14FF0FF30CAE79DF8000000F010008A
:1051B00020B1FFF7ABF86FF00100C0E7E2B2824B1D
:1051C0001B68D97A804B5B6818783B46FEF7B8F9C4
:1051D00010B14FF0FF30B2E795FBF4F0401E307095
:1051E0000020ACE70146784880F822100020704784
:1051F0007CB5054674494968087801AB04220D2145
:10520000FEF79EF908B107207CBD9DF80700C0F3AA
:1052100001109DF8041001F0E00140EAE1008DF872
:1052200000009DF80700C0F381009DF8051001F013
:10523000E00140EAE1008DF801009DF8070000F070
:1052400003009DF8061001F0E00140EAE1008DF84E
:105250000200002427E01DF8040030B99FED5B0A2E
:1052600005EB840080ED000A1BE09FED590A05EB79
:10527000840080ED000A0BE005EB840090ED000A4D
:10528000DFED540A20EE200A05EB840080ED000AD1
:105290001DF80400401EC0B20DF804000028EBD138
:1052A00000BF601CC4B2032CD5DB0020ACE7F0B516
:1052B0002DED028B83B006460F4600256846FFF7AA
:1052C00097FF002447E056F8241057F82420881A46
:1052D000002801DB014600E0414200EE101AB8EE62
:1052E000C00ADFED3D0A80EE208A684600EB8400AC
:1052F00090ED000AB5EEC00AF1EE10FA18D068463B
:1053000000EB8400D0ED000A88EE200AF7EE000AD8
:1053100070EE608AB0EEE80A3048D0ED090AB4EECB
:10532000E00AF1EE10FA15DD0120A040054311E07E
:105330002A4890ED070AB4EEC80AF1EE10FA06DC2E
:1053400090ED080AB4EEC80AF1EE10FA02D201207C
:10535000A0400543641C032CB5DB284603B0BDEC1C
:10536000028BF0BDF0B52DED048B81B006460F46E3
:1053700000251549496808786B4603220D21FEF780
:10538000DFF820B1072001B0BDEC048BF0BD9DF823
:10539000000000F01F008DF800009DF8010000F0F3
:1053A0001F008DF801009DF8020000F01F008DF82D
:1053B0000200002461E056F8241057F82420881ACF
:1053C00000280DDB01460CE02C000020000000004E
:1053D0007B14AE3E1D5A843F00008047AC9A00000B
:1053E000414200EE101AB8EEC00A5FED050A80EEE9
:1053F000208A1DF8040068B3FE4890ED000AB8EE5C
:10540000400ADFEDFD0A80EE801AF0EE418A05E0E9
:105410009FEDFA0A28EE800AF0EE408A1DF804009B
:10542000401EC0B20DF804000028F1D188EE280A11
:10543000F7EE000A30EE609AB0EEC90AED48D0ED02
:10544000060AB4EEE00AF1EE10FA15DD0120A040E4
:10545000054311E0E74890ED040AB4EEC80AF1EE06
:1054600010FA06DC90ED050AB4EEC80AF1EE10FA67
:1054700002D20120A0400543641C032C9BDB28467C
:1054800081E72DE9F04F87B005460C469146012093
:105490008DF8100000208DF81100D94A1268917C17
:1054A000D74A5268107804AB0222FEF7E3F820B125
:1054B0004FF0FF3007B0BDE8F08FC820FDF73CFB90
:1054C00000208DF81000CE4A1268D17BCC4A526879
:1054D000107804AB0122FEF7CDF810B14FF0FF3089
:1054E000E8E7C74A12685179C54A5268107804AB98
:1054F0000122FEF7BFF810B14FF0FF30DAE7C04AE3
:105500001268917CBE4A5268107804AB0122FEF703
:10551000B1F810B14FF0FF30CCE7B94A1268D17D35
:10552000B74A5268107804AB0122FEF7A3F810B115
:105530004FF0FF30BEE7B24A12681179B04A5268A4
:10554000107804AB0122FEF795F810B14FF0FF3050
:10555000B0E70C208DF81000A94A12681179A84A0A
:105560005268107804AB0122FEF784F810B14FF0B6
:10557000FF309FE70F20FDF7DFFAA148806A407AED
:105580008DF810009E4A126891789D4A52681078F2
:1055900004AB0122FEF76EF810B14FF0FF3089E73F
:1055A0009748806A007A8DF81000954A1268517801
:1055B000934A5268107804AB0122FEF75BF810B1F1
:1055C0004FF0FF3076E7B9F1000F07D08C48806AC2
:1055D000807A40F0E0008DF8100004E08848806A8E
:1055E000807A8DF81000864A12689179844A526850
:1055F000107804AB0122FEF73DF810B14FF0FF30F8
:1056000058E7B9F1000F07D07D48806AC07A40F0B2
:10561000E0008DF8100003E07648C07A8DF81000A5
:10562000774A1268D179764A5268107804AB012221
:10563000FEF720F810B14FF0FF303BE7B9F1000F53
:1056400002D0C820FDF778FA40208DF810006C4A8F
:10565000126811796A4A5268107804AB0122FEF789
:1056600009F810B14FF0FF3024E778208DF81000D2
:10567000634A12685179624A5268107804AB012279
:10568000FDF7F8FF10B14FF0FF3013E75949888953
:10569000FDF752FA00208DF81000594A126851792E
:1056A000574A5268107804AB0122FDF7E3FF10B1AE
:1056B0004FF0FF30FEE6524A1268917A504A526823
:1056C000107804AB0222FDF73BFF10B14FF0FF3022
:1056D000F0E69DF811009DF8101040EA012B0C2017
:1056E0009BFBF0F0C6B20020A86068602860A06054
:1056F00060602060824665E0414A1268D17A404A83
:105700005268107804AB0C22FDF71AFF10B14FF06D
:10571000FF30CFE69DF811009DF8101040EA0120FF
:1057200000B2ADF808009DF813009DF8121040EA91
:10573000012000B2ADF80A009DF815009DF8141084
:1057400040EA012000B2ADF80C00BDF90810206855
:1057500008442060BDF90A10606808446060BDF923
:105760000C10A0680844A0609DF817009DF8161062
:1057700040EA012000B2ADF800009DF819009DF844
:10578000181040EA012000B2ADF802009DF81B009D
:105790009DF81A1040EA012000B2ADF80400BDF9EE
:1057A0000010286808442860BDF9021068680844A1
:1057B0006860BDF90410A8680844A8600AF10100F7
:1057C00000F0FF0AB24597DB0A48D0F800C028680D
:1057D000C117090441EA1041070462460023384614
:1057E00001F0A8FD32460023CDE9020101F0A2FD3F
:1057F000286007E0AC9A000000B04C4554E3853FB8
:105800002C000020F748D0F800C06868C1170904D0
:1058100041EA1041070462460023384601F08AFD40
:1058200032460023CDE9020101F084FD6860ED48B5
:10583000D0F800C0A868C117090441EA1041070464
:1058400062460023384601F075FD32460023CDE95B
:10585000020101F06FFDA860E248D0F804C02068A2
:10586000C117090441EA1041070462460023384683
:1058700001F060FD32460023CDE9020101F05AFD3E
:105880002060D848D0F804C06068C117090441EA14
:105890001041070462460023384601F04BFD3246B2
:1058A0000023CDE9020101F045FD6060CD48D0F84C
:1058B00004C0A068C117090441EA10410704624608
:1058C0000023384601F036FD32460023CDE90201BF
:1058D00001F030FDA060A068002804DDA068A0F5FC
:1058E0008030A06003E0A06800F58030A060002058
:1058F000E0E538B50446BC4890F82400A04201D148
:10590000002038BD24B3B84890F8250010B94FF0F6
:10591000FF30F6E70020FEF72DFB0020FEF752FCDB
:10592000B149C88CFEF7BFFE00200090AE4949681F
:1059300008786B4601222321FDF79CFE0121AA482D
:1059400080F824100120FEF715FBFEF7DFFC13E0C2
:105950000020FEF70FFBA448007C0090A249496894
:1059600008786B4601222321FDF784FE00219E4822
:1059700080F82410FEF7CAFC0020C2E72DE9F04FA2
:105980008DB083460F4602200C90974890F8240073
:1059900020B10020FFF7ADFF012600E0002603A89C
:1059A000FFF7C3F905A8FFF7E0F901A8FFF701FA2F
:1059B00002A8FFF723FA8C4890F80AA004A8FFF782
:1059C0007FFA002407E0002239465846FFF759FDC8
:1059D00000B902E0641C022CF5DB00BF022C01D1EF
:1059E000002528E0002407E0012206A909A8FFF706
:1059F00048FD00B902E0641C022CF5DB00BF022C5C
:105A000001D1002517E006A93846FFF750FC00F049
:105A1000FF0809A95846FFF7A5FC00F0FF0900257B
:105A2000B9F1000F01D145F00105B8F1000F01D126
:105A300045F0020500BFFF206B490872FF216A484C
:105A40004172C1724FF6FF71C181FF2181720174F1
:105A500001210173BDF80C00FEF7B3FE9DF81400A0
:105A6000FEF76DFEBDF80400FEF771FDBDF80800FD
:105A7000FEF719FE5046FEF740FB9DF81000FEF7BA
:105A800031FD16B10120FFF734FF28460DB0BDE807
:105A9000F08FF8B504460D46164616B94FF0FF30A4
:105AA000F8BD5148807A10B94FF0FF30F8E7201266
:105AB0008DF80000E0B28DF801009DF80100284447
:105AC000494949684989884202DD4FF0FF30E7E7DC
:105AD000454A1268117E444A526810786B46022289
